{
    "_format": "hh-sol-artifact-1",
    "contractName": "LSP7Asset",
    "sourceName": "contracts/tokens/LSP7Asset/LSP7Asset.sol",
    "abi": [
        {
            "inputs": [
                {
                    "internalType": "string",
                    "name": "name_",
                    "type": "string"
                },
                {
                    "internalType": "string",
                    "name": "symbol_",
                    "type": "string"
                },
                {
                    "internalType": "uint256",
                    "name": "supply",
                    "type": "uint256"
                },
                {
                    "internalType": "bytes",
                    "name": "lsp4Metadata",
                    "type": "bytes"
                },
                {
                    "internalType": "bytes",
                    "name": "erc725YJsonSchema",
                    "type": "bytes"
                },
                {
                    "internalType": "address",
                    "name": "newOwner_",
                    "type": "address"
                }
            ],
            "stateMutability": "nonpayable",
            "type": "constructor"
        },
        {
            "anonymous": false,
            "inputs": [
                {
                    "indexed": true,
                    "internalType": "address",
                    "name": "operator",
                    "type": "address"
                },
                {
                    "indexed": true,
                    "internalType": "address",
                    "name": "tokenOwner",
                    "type": "address"
                },
                {
                    "indexed": true,
                    "internalType": "uint256",
                    "name": "amount",
                    "type": "uint256"
                }
            ],
            "name": "AuthorizedOperator",
            "type": "event"
        },
        {
            "anonymous": false,
            "inputs": [
                {
                    "indexed": true,
                    "internalType": "bytes32",
                    "name": "key",
                    "type": "bytes32"
                },
                {
                    "indexed": false,
                    "internalType": "bytes",
                    "name": "value",
                    "type": "bytes"
                }
            ],
            "name": "DataChanged",
            "type": "event"
        },
        {
            "anonymous": false,
            "inputs": [
                {
                    "indexed": true,
                    "internalType": "address",
                    "name": "previousOwner",
                    "type": "address"
                },
                {
                    "indexed": true,
                    "internalType": "address",
                    "name": "newOwner",
                    "type": "address"
                }
            ],
            "name": "OwnershipTransferred",
            "type": "event"
        },
        {
            "anonymous": false,
            "inputs": [
                {
                    "indexed": true,
                    "internalType": "address",
                    "name": "operator",
                    "type": "address"
                },
                {
                    "indexed": true,
                    "internalType": "address",
                    "name": "tokenOwner",
                    "type": "address"
                }
            ],
            "name": "RevokedOperator",
            "type": "event"
        },
        {
            "anonymous": false,
            "inputs": [
                {
                    "indexed": true,
                    "internalType": "address",
                    "name": "operator",
                    "type": "address"
                },
                {
                    "indexed": true,
                    "internalType": "address",
                    "name": "from",
                    "type": "address"
                },
                {
                    "indexed": true,
                    "internalType": "address",
                    "name": "to",
                    "type": "address"
                },
                {
                    "indexed": false,
                    "internalType": "uint256",
                    "name": "amount",
                    "type": "uint256"
                },
                {
                    "indexed": false,
                    "internalType": "bool",
                    "name": "force",
                    "type": "bool"
                },
                {
                    "indexed": false,
                    "internalType": "bytes",
                    "name": "data",
                    "type": "bytes"
                }
            ],
            "name": "Transfer",
            "type": "event"
        },
        {
            "inputs": [
                {
                    "internalType": "address",
                    "name": "operator",
                    "type": "address"
                },
                {
                    "internalType": "uint256",
                    "name": "amount",
                    "type": "uint256"
                }
            ],
            "name": "authorizeOperator",
            "outputs": [],
            "stateMutability": "nonpayable",
            "type": "function"
        },
        {
            "inputs": [
                {
                    "internalType": "address",
                    "name": "tokenOwner",
                    "type": "address"
                }
            ],
            "name": "balanceOf",
            "outputs": [
                {
                    "internalType": "uint256",
                    "name": "",
                    "type": "uint256"
                }
            ],
            "stateMutability": "view",
            "type": "function"
        },
        {
            "inputs": [],
            "name": "decimals",
            "outputs": [
                {
                    "internalType": "uint256",
                    "name": "",
                    "type": "uint256"
                }
            ],
            "stateMutability": "view",
            "type": "function"
        },
        {
            "inputs": [
                {
                    "internalType": "bytes32[]",
                    "name": "keys",
                    "type": "bytes32[]"
                }
            ],
            "name": "getData",
            "outputs": [
                {
                    "internalType": "bytes[]",
                    "name": "values",
                    "type": "bytes[]"
                }
            ],
            "stateMutability": "view",
            "type": "function"
        },
        {
            "inputs": [
                {
                    "internalType": "address",
                    "name": "operator",
                    "type": "address"
                },
                {
                    "internalType": "address",
                    "name": "tokenOwner",
                    "type": "address"
                }
            ],
            "name": "isOperatorFor",
            "outputs": [
                {
                    "internalType": "uint256",
                    "name": "",
                    "type": "uint256"
                }
            ],
            "stateMutability": "view",
            "type": "function"
        },
        {
            "inputs": [],
            "name": "owner",
            "outputs": [
                {
                    "internalType": "address",
                    "name": "",
                    "type": "address"
                }
            ],
            "stateMutability": "view",
            "type": "function"
        },
        {
            "inputs": [],
            "name": "renounceOwnership",
            "outputs": [],
            "stateMutability": "nonpayable",
            "type": "function"
        },
        {
            "inputs": [
                {
                    "internalType": "address",
                    "name": "operator",
                    "type": "address"
                }
            ],
            "name": "revokeOperator",
            "outputs": [],
            "stateMutability": "nonpayable",
            "type": "function"
        },
        {
            "inputs": [
                {
                    "internalType": "bytes32[]",
                    "name": "_keys",
                    "type": "bytes32[]"
                },
                {
                    "internalType": "bytes[]",
                    "name": "_values",
                    "type": "bytes[]"
                }
            ],
            "name": "setData",
            "outputs": [],
            "stateMutability": "nonpayable",
            "type": "function"
        },
        {
            "inputs": [
                {
                    "internalType": "bytes4",
                    "name": "interfaceId",
                    "type": "bytes4"
                }
            ],
            "name": "supportsInterface",
            "outputs": [
                {
                    "internalType": "bool",
                    "name": "",
                    "type": "bool"
                }
            ],
            "stateMutability": "view",
            "type": "function"
        },
        {
            "inputs": [],
            "name": "totalSupply",
            "outputs": [
                {
                    "internalType": "uint256",
                    "name": "",
                    "type": "uint256"
                }
            ],
            "stateMutability": "view",
            "type": "function"
        },
        {
            "inputs": [
                {
                    "internalType": "address",
                    "name": "from",
                    "type": "address"
                },
                {
                    "internalType": "address",
                    "name": "to",
                    "type": "address"
                },
                {
                    "internalType": "uint256",
                    "name": "amount",
                    "type": "uint256"
                },
                {
                    "internalType": "bool",
                    "name": "force",
                    "type": "bool"
                },
                {
                    "internalType": "bytes",
                    "name": "data",
                    "type": "bytes"
                }
            ],
            "name": "transfer",
            "outputs": [],
            "stateMutability": "nonpayable",
            "type": "function"
        },
        {
            "inputs": [
                {
                    "internalType": "address[]",
                    "name": "from",
                    "type": "address[]"
                },
                {
                    "internalType": "address[]",
                    "name": "to",
                    "type": "address[]"
                },
                {
                    "internalType": "uint256[]",
                    "name": "amount",
                    "type": "uint256[]"
                },
                {
                    "internalType": "bool",
                    "name": "force",
                    "type": "bool"
                },
                {
                    "internalType": "bytes[]",
                    "name": "data",
                    "type": "bytes[]"
                }
            ],
            "name": "transferBatch",
            "outputs": [],
            "stateMutability": "nonpayable",
            "type": "function"
        },
        {
            "inputs": [
                {
                    "internalType": "address",
                    "name": "newOwner",
                    "type": "address"
                }
            ],
            "name": "transferOwnership",
            "outputs": [],
            "stateMutability": "nonpayable",
            "type": "function"
        }
    ],
    "bytecode": "0x60806040523480156200001157600080fd5b5060405162002a5238038062002a52833981016040819052620000349162000a29565b858582600183838380620000506000546001600160a01b031690565b6001600160a01b0316816001600160a01b0316146200007f576200007f81620001e460201b6200088b1760201c565b62000091635a988c0f60e01b62000277565b506040805180820190915260048152632936598960e21b6020820152620000da907feafec4d89fa9619884b6b89135626455000000000000000000000000a4d9662490620002fb565b620001067fdeba1e292f8ba88238e10ab3c7f88bd4be4fac56cad5194b6ecceaf653468af184620002fb565b620001327f2f0a68ab07768e01943a599e73362a0e17a63a72e94dd2e384d2c1d4db93275683620002fb565b50506003805460ff1916831515179055506200015563e33f65c360e01b62000277565b506200018892507f9afb95cacc9f95858ec44aa8c3b685511002e30ae54415823f406128b85b238e9150859050620002fb565b620001b47f8fb157c87cad71b18a01a5974e35610cdd1bbc7985d4f66353a01ccaebc5457383620002fb565b620001d881856001604051806020016040528060008152506200035b60201b60201c565b50505050505062000cc0565b600054600160a01b900460ff1615620002565760405162461bcd60e51b815260206004820152602960248201527f4f776e61626c653a206f776e65722063616e206f6e6c7920626520696e69746960448201526861746564206f6e636560b81b60648201526084015b60405180910390fd5b6000805460ff60a01b1916600160a01b179055620002748162000479565b50565b6001600160e01b03198082161415620002d35760405162461bcd60e51b815260206004820152601c60248201527f4552433136353a20696e76616c696420696e746572666163652069640000000060448201526064016200024d565b6001600160e01b0319166000908152600160208190526040909120805460ff19169091179055565b600082815260026020908152604090912082516200031c928401906200087b565b50817fece574603820d07bc9b91f2a932baadf4628aabcb8afba49776529c14a6104b2826040516200034f919062000bae565b60405180910390a25050565b6001600160a01b038416620003c65760405162461bcd60e51b815260206004820152602a60248201527f4c5350373a206d696e7420746f20746865207a65726f2061646472657373206e6044820152691bdd08185b1b1bddd95960b21b60648201526084016200024d565b33620003d560008686620004c9565b6001600160a01b03851660009081526005602052604081208054869290620003ff90849062000bef565b92505081905550846001600160a01b031660006001600160a01b0316826001600160a01b03167f3997e418d2cef0b3b0e907b1e39605c3f7d32dbd061e82ea5b4a770d46a160a68787876040516200045a9392919062000bc3565b60405180910390a46200047260008686868662000520565b5050505050565b600080546001600160a01b038381166001600160a01b0319831681178455604051919092169283917f8be0079c531659141344cd1fd0a4f28419497f9722a3daafe3b4186f6b6457e09190a35050565b6001600160a01b038316620004f2578060046000828254620004ec919062000bef565b90915550505b6001600160a01b0382166200051b57806004600082825462000515919062000c0a565b90915550505b505050565b62000536846200072260201b620009641760201c565b80156200055c57506200055c84636bb56a1460e01b6200075b60201b620009af1760201c565b156200063f576000858585846040516020016200057d949392919062000b2b565b60408051601f1981840301815290829052631aed5a8560e21b825291506001600160a01b03861690636bb56a1490620005dd907fdbe2c314e1aee2970c72666f2ebe8933a8575263ea71e5ff6a9178e95d47a26f90859060040162000b93565b600060405180830381600087803b158015620005f857600080fd5b505af11580156200060d573d6000803e3d6000fd5b505050506040513d6000823e601f3d908101601f19168201604052620006379190810190620009e9565b505062000472565b81620004725762000664846001600160a01b03166200078360201b620009d21760201c565b15620006d95760405162461bcd60e51b815260206004820152603460248201527f4c5350373a20746f6b656e20726563656976657220636f6e7472616374206d6960448201527f7373696e67204c53503120696e7465726661636500000000000000000000000060648201526084016200024d565b60405162461bcd60e51b815260206004820152601b60248201527f4c5350373a20746f6b656e20726563656976657220697320454f41000000000060448201526064016200024d565b600062000737826301ffc9a760e01b62000789565b801562000755575062000753826001600160e01b031962000789565b155b92915050565b6000620007688362000722565b80156200077c57506200077c838362000789565b9392505050565b3b151590565b604080516001600160e01b0319831660248083019190915282518083039091018152604490910182526020810180516001600160e01b03166301ffc9a760e01b179052905160009190829081906001600160a01b0387169061753090620007f290869062000b75565b6000604051808303818686fa925050503d806000811462000830576040519150601f19603f3d011682016040523d82523d6000602084013e62000835565b606091505b509150915060208151101562000852576000935050505062000755565b81801562000871575080806020019051810190620008719190620009c5565b9695505050505050565b828054620008899062000c57565b90600052602060002090601f016020900481019282620008ad5760008555620008f8565b82601f10620008c857805160ff1916838001178555620008f8565b82800160010185558215620008f8579182015b82811115620008f8578251825591602001919060010190620008db565b50620009069291506200090a565b5090565b5b808211156200090657600081556001016200090b565b80516001600160a01b03811681146200093957600080fd5b919050565b600082601f8301126200095057600080fd5b81516001600160401b03808211156200096d576200096d62000caa565b604051601f8301601f19908116603f0116810190828211818310171562000998576200099862000caa565b81604052838152866020858801011115620009b257600080fd5b6200087184602083016020890162000c24565b600060208284031215620009d857600080fd5b815180151581146200077c57600080fd5b600060208284031215620009fc57600080fd5b81516001600160401b0381111562000a1357600080fd5b62000a21848285016200093e565b949350505050565b60008060008060008060c0878903121562000a4357600080fd5b86516001600160401b038082111562000a5b57600080fd5b62000a698a838b016200093e565b9750602089015191508082111562000a8057600080fd5b62000a8e8a838b016200093e565b965060408901519550606089015191508082111562000aac57600080fd5b62000aba8a838b016200093e565b9450608089015191508082111562000ad157600080fd5b5062000ae089828a016200093e565b92505062000af160a0880162000921565b90509295509295509295565b6000815180845262000b1781602086016020860162000c24565b601f01601f19169290920160200192915050565b6001600160601b0319606086811b8216835285901b16601482015260288101839052815160009062000b6581604885016020870162000c24565b9190910160480195945050505050565b6000825162000b8981846020870162000c24565b9190910192915050565b82815260406020820152600062000a21604083018462000afd565b6020815260006200077c602083018462000afd565b838152821515602082015260606040820152600062000be6606083018462000afd565b95945050505050565b6000821982111562000c055762000c0562000c94565b500190565b60008282101562000c1f5762000c1f62000c94565b500390565b60005b8381101562000c4157818101518382015260200162000c27565b8381111562000c51576000848401525b50505050565b600181811c9082168062000c6c57607f821691505b6020821081141562000c8e57634e487b7160e01b600052602260045260246000fd5b50919050565b634e487b7160e01b600052601160045260246000fd5b634e487b7160e01b600052604160045260246000fd5b611d828062000cd06000396000f3fe608060405234801561001057600080fd5b50600436106100ea5760003560e01c8063715018a61161008c578063a8a34e0a11610066578063a8a34e0a146101d8578063d95b6371146101eb578063f2fde38b146101fe578063fad8b32a1461021157600080fd5b8063715018a6146101a2578063760d9bba146101aa5780638da5cb5b146101bd57600080fd5b8063313ce567116100c8578063313ce5671461013e57806347980aa3146101465780634e3e6e9c1461015957806370a082311461017957600080fd5b806301ffc9a7146100ef57806314a6e2931461011757806318160ddd1461012c575b600080fd5b6101026100fd366004611988565b610224565b60405190151581526020015b60405180910390f35b61012a610125366004611907565b610294565b005b6004545b60405190815260200161010e565b6101306103c9565b61012a610154366004611794565b6103e8565b61016c6101673660046118ca565b6103f7565b60405161010e9190611ae9565b6101306101873660046116cb565b6001600160a01b031660009081526005602052604090205490565b61012a6104ad565b61012a6101b8366004611719565b610513565b6000546040516001600160a01b03909116815260200161010e565b61012a6101e63660046117be565b610615565b6101306101f93660046116e6565b610735565b61012a61020c3660046116cb565b61079d565b61012a61021f3660046116cb565b61087f565b60006301ffc9a760e01b7fffffffff000000000000000000000000000000000000000000000000000000008316148061028e57507fffffffff00000000000000000000000000000000000000000000000000000000821660009081526001602052604090205460ff165b92915050565b6000546001600160a01b031633146102f35760405162461bcd60e51b815260206004820181905260248201527f4f776e61626c653a2063616c6c6572206973206e6f7420746865206f776e657260448201526064015b60405180910390fd5b805182511461036a5760405162461bcd60e51b815260206004820152602660248201527f4b657973206c656e677468206e6f7420657175616c20746f2076616c7565732060448201527f6c656e677468000000000000000000000000000000000000000000000000000060648201526084016102ea565b60005b82518110156103c4576103b283828151811061038b5761038b611d12565b60200260200101518383815181106103a5576103a5611d12565b60200260200101516109d8565b806103bc81611cc3565b91505061036d565b505050565b60035460009060ff166103dd5760126103e0565b60005b60ff16905090565b6103f3338383610a34565b5050565b6060815167ffffffffffffffff81111561041357610413611d28565b60405190808252806020026020018201604052801561044657816020015b60608152602001906001900390816104315790505b50905060005b82518110156104a75761047783828151811061046a5761046a611d12565b6020026020010151610cbb565b82828151811061048957610489611d12565b6020026020010181905250808061049f90611cc3565b91505061044c565b50919050565b6000546001600160a01b031633146105075760405162461bcd60e51b815260206004820181905260248201527f4f776e61626c653a2063616c6c6572206973206e6f7420746865206f776e657260448201526064016102ea565b6105116000610d5d565b565b336001600160a01b0386168114610600576001600160a01b03808716600090815260066020908152604080832093851683529290522054848110156105c05760405162461bcd60e51b815260206004820152603860248201527f4c5350373a207472616e7366657220616d6f756e742065786365656473206f7060448201527f657261746f7220617574686f72697a656420616d6f756e74000000000000000060648201526084016102ea565b6001600160a01b038088166000908152600660209081526040808320938616835292905220546105fe90889084906105f9908990611c4b565b610a34565b505b61060d8686868686610dc5565b505050505050565b83518551148015610627575082518551145b8015610634575080518551145b6106a65760405162461bcd60e51b815260206004820152602860248201527f4c5350373a207472616e736665724261746368206c697374206c656e6774682060448201527f6d69736d6174636800000000000000000000000000000000000000000000000060648201526084016102ea565b60005b855181101561060d576107238682815181106106c7576106c7611d12565b60200260200101518683815181106106e1576106e1611d12565b60200260200101518684815181106106fb576106fb611d12565b60200260200101518686868151811061071657610716611d12565b6020026020010151610513565b8061072d81611cc3565b9150506106a9565b6000826001600160a01b0316826001600160a01b0316141561077057506001600160a01b03811660009081526005602052604090205461028e565b506001600160a01b0380821660009081526006602090815260408083209386168352929052205492915050565b6000546001600160a01b031633146107f75760405162461bcd60e51b815260206004820181905260248201527f4f776e61626c653a2063616c6c6572206973206e6f7420746865206f776e657260448201526064016102ea565b6001600160a01b0381166108735760405162461bcd60e51b815260206004820152602660248201527f4f776e61626c653a206e6577206f776e657220697320746865207a65726f206160448201527f646472657373000000000000000000000000000000000000000000000000000060648201526084016102ea565b61087c81610d5d565b50565b61087c33826000610a34565b60005474010000000000000000000000000000000000000000900460ff161561091c5760405162461bcd60e51b815260206004820152602960248201527f4f776e61626c653a206f776e65722063616e206f6e6c7920626520696e69746960448201527f61746564206f6e6365000000000000000000000000000000000000000000000060648201526084016102ea565b600080547fffffffffffffffffffffff00ffffffffffffffffffffffffffffffffffffffff167401000000000000000000000000000000000000000017905561087c81610d5d565b6000610977826301ffc9a760e01b611024565b801561028e57506109a8827fffffffff00000000000000000000000000000000000000000000000000000000611024565b1592915050565b60006109ba83610964565b80156109cb57506109cb8383611024565b9392505050565b3b151590565b600082815260026020908152604090912082516109f79284019061144f565b50817fece574603820d07bc9b91f2a932baadf4628aabcb8afba49776529c14a6104b282604051610a289190611b82565b60405180910390a25050565b826001600160a01b0316826001600160a01b03161415610ae25760405162461bcd60e51b815260206004820152604360248201527f4c5350373a207570646174696e67206f70657261746f72206661696c65642c2060448201527f63616e206e6f742075736520746f6b656e206f776e6572206173206f7065726160648201527f746f720000000000000000000000000000000000000000000000000000000000608482015260a4016102ea565b6001600160a01b038216610b60576040805162461bcd60e51b81526020600482015260248101919091527f4c5350373a207570646174696e67206f70657261746f72206661696c65642c2060448201527f6f70657261746f722063616e206e6f74206265207a65726f206164647265737360648201526084016102ea565b6001600160a01b038316610c025760405162461bcd60e51b815260206004820152604560248201527f4c5350373a207570646174696e67206f70657261746f72206661696c65642c2060448201527f63616e206e6f7420736574206f70657261746f7220666f72207a65726f20616460648201527f6472657373000000000000000000000000000000000000000000000000000000608482015260a4016102ea565b6001600160a01b0380841660009081526006602090815260408083209386168352929052208190558015610c765780836001600160a01b0316836001600160a01b03167fd66aff874162a96578e919097b6f6d153dfd89a5cec41bb331fdb0c4aec16e2c60405160405180910390a4505050565b826001600160a01b0316826001600160a01b03167f50546e66e5f44d728365dc3908c63bc5cfeeab470722c1677e3073a6ac294aa160405160405180910390a3505050565b6000818152600260205260409020805460609190610cd890611c8e565b80601f0160208091040260200160405190810160405280929190818152602001828054610d0490611c8e565b8015610d515780601f10610d2657610100808354040283529160200191610d51565b820191906000526020600020905b815481529060010190602001808311610d3457829003601f168201915b50505050509050919050565b600080546001600160a01b038381167fffffffffffffffffffffffff0000000000000000000000000000000000000000831681178455604051919092169283917f8be0079c531659141344cd1fd0a4f28419497f9722a3daafe3b4186f6b6457e09190a35050565b6001600160a01b038516610e405760405162461bcd60e51b8152602060048201526024808201527f4c5350373a207472616e736665722066726f6d20746865207a65726f2061646460448201527f726573730000000000000000000000000000000000000000000000000000000060648201526084016102ea565b6001600160a01b038416610ebc5760405162461bcd60e51b815260206004820152602260248201527f4c5350373a207472616e7366657220746f20746865207a65726f20616464726560448201527f737300000000000000000000000000000000000000000000000000000000000060648201526084016102ea565b6001600160a01b038516600090815260056020526040902054831115610f4a5760405162461bcd60e51b815260206004820152603060248201527f4c5350373a207472616e7366657220616d6f756e74206578636565647320746f60448201527f6b656e4f776e65722062616c616e63650000000000000000000000000000000060648201526084016102ea565b33610f578686868561113a565b610f62868686611233565b6001600160a01b03861660009081526005602052604081208054869290610f8a908490611c4b565b90915550506001600160a01b03851660009081526005602052604081208054869290610fb7908490611c33565b92505081905550846001600160a01b0316866001600160a01b0316826001600160a01b03167f3997e418d2cef0b3b0e907b1e39605c3f7d32dbd061e82ea5b4a770d46a160a687878760405161100f93929190611b95565b60405180910390a461060d8686868686611283565b604080517fffffffff00000000000000000000000000000000000000000000000000000000831660248083019190915282518083039091018152604490910182526020810180517bffffffffffffffffffffffffffffffffffffffffffffffffffffffff166301ffc9a760e01b179052905160009190829081906001600160a01b03871690617530906110b8908690611acd565b6000604051808303818686fa925050503d80600081146110f4576040519150601f19603f3d011682016040523d82523d6000602084013e6110f9565b606091505b5091509150602081511015611114576000935050505061028e565b818015611130575080806020019051810190611130919061196b565b9695505050505050565b61114384610964565b801561115b575061115b84631aed5a8560e21b6109af565b1561122d576000848484846040516020016111799493929190611a6d565b60408051601f1981840301815290829052631aed5a8560e21b825291506001600160a01b03861690636bb56a14906111d7907f40b8bec57d7b5ff0dbd9e9acd0a47dfeb0101e1a203766f5ccab00445fbf39e9908590600401611b69565b600060405180830381600087803b1580156111f157600080fd5b505af1158015611205573d6000803e3d6000fd5b505050506040513d6000823e601f3d908101601f1916820160405261060d91908101906119ca565b50505050565b6001600160a01b0383166112595780600460008282546112539190611c33565b90915550505b6001600160a01b0382166103c45780600460008282546112799190611c4b565b9091555050505050565b61128c84610964565b80156112a457506112a484631aed5a8560e21b6109af565b1561137d576000858585846040516020016112c29493929190611a6d565b60408051601f1981840301815290829052631aed5a8560e21b825291506001600160a01b03861690636bb56a1490611320907fdbe2c314e1aee2970c72666f2ebe8933a8575263ea71e5ff6a9178e95d47a26f908590600401611b69565b600060405180830381600087803b15801561133a57600080fd5b505af115801561134e573d6000803e3d6000fd5b505050506040513d6000823e601f3d908101601f1916820160405261137691908101906119ca565b5050611448565b81611448576001600160a01b0384163b156114005760405162461bcd60e51b815260206004820152603460248201527f4c5350373a20746f6b656e20726563656976657220636f6e7472616374206d6960448201527f7373696e67204c53503120696e7465726661636500000000000000000000000060648201526084016102ea565b60405162461bcd60e51b815260206004820152601b60248201527f4c5350373a20746f6b656e20726563656976657220697320454f41000000000060448201526064016102ea565b5050505050565b82805461145b90611c8e565b90600052602060002090601f01602090048101928261147d57600085556114c3565b82601f1061149657805160ff19168380011785556114c3565b828001600101855582156114c3579182015b828111156114c35782518255916020019190600101906114a8565b506114cf9291506114d3565b5090565b5b808211156114cf57600081556001016114d4565b80356001600160a01b03811681146114ff57600080fd5b919050565b600082601f83011261151557600080fd5b8135602061152a61152583611be7565b611bb6565b80838252828201915082860187848660051b890101111561154a57600080fd5b60005b858110156115705761155e826114e8565b8452928401929084019060010161154d565b5090979650505050505050565b600082601f83011261158e57600080fd5b8135602061159e61152583611be7565b80838252828201915082860187848660051b89010111156115be57600080fd5b60005b85811015611570578135845292840192908401906001016115c1565b600082601f8301126115ee57600080fd5b813560206115fe61152583611be7565b80838252828201915082860187848660051b890101111561161e57600080fd5b6000805b8681101561166157823567ffffffffffffffff811115611640578283fd5b61164e8b88838d010161167a565b8652509385019391850191600101611622565b509198975050505050505050565b80356114ff81611d3e565b600082601f83011261168b57600080fd5b813561169961152582611c0b565b8181528460208386010111156116ae57600080fd5b816020850160208301376000918101602001919091529392505050565b6000602082840312156116dd57600080fd5b6109cb826114e8565b600080604083850312156116f957600080fd5b611702836114e8565b9150611710602084016114e8565b90509250929050565b600080600080600060a0868803121561173157600080fd5b61173a866114e8565b9450611748602087016114e8565b935060408601359250606086013561175f81611d3e565b9150608086013567ffffffffffffffff81111561177b57600080fd5b6117878882890161167a565b9150509295509295909350565b600080604083850312156117a757600080fd5b6117b0836114e8565b946020939093013593505050565b600080600080600060a086880312156117d657600080fd5b853567ffffffffffffffff808211156117ee57600080fd5b6117fa89838a01611504565b965060209150818801358181111561181157600080fd5b61181d8a828b01611504565b96505060408801358181111561183257600080fd5b8801601f81018a1361184357600080fd5b803561185161152582611be7565b8082825285820191508584018d878560051b870101111561187157600080fd5b600094505b83851015611894578035835260019490940193918601918601611876565b5097506118a7925050506060890161166f565b935060808801359150808211156118bd57600080fd5b50611787888289016115dd565b6000602082840312156118dc57600080fd5b813567ffffffffffffffff8111156118f357600080fd5b6118ff8482850161157d565b949350505050565b6000806040838503121561191a57600080fd5b823567ffffffffffffffff8082111561193257600080fd5b61193e8683870161157d565b9350602085013591508082111561195457600080fd5b50611961858286016115dd565b9150509250929050565b60006020828403121561197d57600080fd5b81516109cb81611d3e565b60006020828403121561199a57600080fd5b81357fffffffff00000000000000000000000000000000000000000000000000000000811681146109cb57600080fd5b6000602082840312156119dc57600080fd5b815167ffffffffffffffff8111156119f357600080fd5b8201601f81018413611a0457600080fd5b8051611a1261152582611c0b565b818152856020838501011115611a2757600080fd5b611a38826020830160208601611c62565b95945050505050565b60008151808452611a59816020860160208601611c62565b601f01601f19169290920160200192915050565b60007fffffffffffffffffffffffffffffffffffffffff000000000000000000000000808760601b168352808660601b166014840152508360288301528251611abd816048850160208701611c62565b9190910160480195945050505050565b60008251611adf818460208701611c62565b9190910192915050565b6000602080830181845280855180835260408601915060408160051b870101925083870160005b82811015611b5c577fffffffffffffffffffffffffffffffffffffffffffffffffffffffffffffffc0888603018452611b4a858351611a41565b94509285019290850190600101611b10565b5092979650505050505050565b8281526040602082015260006118ff6040830184611a41565b6020815260006109cb6020830184611a41565b8381528215156020820152606060408201526000611a386060830184611a41565b604051601f8201601f1916810167ffffffffffffffff81118282101715611bdf57611bdf611d28565b604052919050565b600067ffffffffffffffff821115611c0157611c01611d28565b5060051b60200190565b600067ffffffffffffffff821115611c2557611c25611d28565b50601f01601f191660200190565b60008219821115611c4657611c46611cfc565b500190565b600082821015611c5d57611c5d611cfc565b500390565b60005b83811015611c7d578181015183820152602001611c65565b8381111561122d5750506000910152565b600181811c90821680611ca257607f821691505b602082108114156104a757634e487b7160e01b600052602260045260246000fd5b60007fffffffffffffffffffffffffffffffffffffffffffffffffffffffffffffffff821415611cf557611cf5611cfc565b5060010190565b634e487b7160e01b600052601160045260246000fd5b634e487b7160e01b600052603260045260246000fd5b634e487b7160e01b600052604160045260246000fd5b801515811461087c57600080fdfea26469706673582212205d98eaf6823ba864756c5ca6cb6aea9cd7b8e8c4f954e6c4bc5f44e2a134b23f64736f6c63430008070033",
    "linkReferences": {},
    "deployedLinkReferences": {}
}