{
	"data": {
		"bytecode": {
			"linkReferences": {},
			"object": "60806040527f661d289e41fcd282d8f4b9c0af12c8506d995e5e9e685415517ab5bc8b90824760015534801561003457600080fd5b50610fe8806100446000396000f3fe608060405234801561001057600080fd5b50600436106100575760003560e01c80632501d1661461005c57806343a860f41461007a57806366e6b18a14610096578063dff72dec146100c6578063ed606af4146100f7575b600080fd5b610064610115565b6040516100719190610b4d565b60405180910390f35b610094600480360381019061008f91906108fa565b61011b565b005b6100b060048036038101906100ab9190610880565b61049e565b6040516100bd9190610b2b565b60405180910390f35b6100e060048036038101906100db91906108cd565b61056a565b6040516100ee929190610c17565b60405180910390f35b6100ff6105ae565b60405161010c9190610b10565b60405180910390f35b60015481565b60405180604001604052804281526020016101346105d4565b73ffffffffffffffffffffffffffffffffffffffff168152506000808581526020019081526020016000206000820151816000015560208201518160010160006101000a81548173ffffffffffffffffffffffffffffffffffffffff021916908373ffffffffffffffffffffffffffffffffffffffff1602179055509050506101c36101be6105d4565b6105dc565b610202576040517f08c379a00000000000000000000000000000000000000000000000000000000081526004016101f990610bf7565b60405180910390fd5b61021a61020d6105d4565b63714df77c60e01b610629565b610259576040517f08c379a000000000000000000000000000000000000000000000000000000000815260040161025090610bd7565b60405180910390fd5b60006040518060400160405280601681526020017f7365744461746128627974657333322c627974657329000000000000000000008152508051906020012060015484846040516024016102af93929190610b68565b604051602081830303815290604052907bffffffffffffffffffffffffffffffffffffffffffffffffffffffff19166020820180517bffffffffffffffffffffffffffffffffffffffffffffffffffffffff838183161783525050505090506103166105d4565b73ffffffffffffffffffffffffffffffffffffffff16638da5cb5b6040518163ffffffff1660e01b815260040160206040518083038186803b15801561035b57600080fd5b505afa15801561036f573d6000803e3d6000fd5b505050506040513d601f19601f820116820180604052508101906103939190610853565b73ffffffffffffffffffffffffffffffffffffffff166309c5eabe826040518263ffffffff1660e01b81526004016103cb9190610bb5565b600060405180830381600087803b1580156103e557600080fd5b505af11580156103f9573d6000803e3d6000fd5b505050506040513d6000823e3d601f19601f82011682018060405250810190610422919061095a565b50837f89afc73d9070642128ac1a96ea8f614d69e6274b88e568817c5ab86d217bed5a60405160405180910390a26104586105d4565b600260006101000a81548173ffffffffffffffffffffffffffffffffffffffff021916908373ffffffffffffffffffffffffffffffffffffffff16021790555050505050565b606060008383905067ffffffffffffffff8111156104bf576104be610e88565b5b6040519080825280602002602001820160405280156104ed5781602001602082028036833780820191505090505b50905060005b8484905081101561055f5760008086868481811061051457610513610e59565b5b905060200201358152602001908152602001600020600001548282815181106105405761053f610e59565b5b602002602001018181525050808061055790610de1565b9150506104f3565b508091505092915050565b60006020528060005260406000206000915090508060000154908060010160009054906101000a900473ffffffffffffffffffffffffffffffffffffffff16905082565b600260009054906101000a900473ffffffffffffffffffffffffffffffffffffffff1681565b600033905090565b6000610608827f01ffc9a70000000000000000000000000000000000000000000000000000000061064e565b801561062257506106208263ffffffff60e01b61064e565b155b9050919050565b6000610634836105dc565b80156106465750610645838361064e565b5b905092915050565b6000806301ffc9a760e01b8360405160240161066a9190610b9a565b604051602081830303815290604052907bffffffffffffffffffffffffffffffffffffffffffffffffffffffff19166020820180517bffffffffffffffffffffffffffffffffffffffffffffffffffffffff838183161783525050505090506000806000602060008551602087018a617530fa92503d915060005190508280156106f5575060208210155b80156107015750600081115b94505050505092915050565b600061072061071b84610c65565b610c40565b90508281526020810184848401111561073c5761073b610ec6565b5b610747848285610d7d565b509392505050565b60008151905061075e81610f84565b92915050565b60008083601f84011261077a57610779610ebc565b5b8235905067ffffffffffffffff81111561079757610796610eb7565b5b6020830191508360208202830111156107b3576107b2610ec1565b5b9250929050565b6000813590506107c981610f9b565b92915050565b60008083601f8401126107e5576107e4610ebc565b5b8235905067ffffffffffffffff81111561080257610801610eb7565b5b60208301915083600182028301111561081e5761081d610ec1565b5b9250929050565b600082601f83011261083a57610839610ebc565b5b815161084a84826020860161070d565b91505092915050565b60006020828403121561086957610868610ed0565b5b60006108778482850161074f565b91505092915050565b6000806020838503121561089757610896610ed0565b5b600083013567ffffffffffffffff8111156108b5576108b4610ecb565b5b6108c185828601610764565b92509250509250929050565b6000602082840312156108e3576108e2610ed0565b5b60006108f1848285016107ba565b91505092915050565b60008060006040848603121561091357610912610ed0565b5b6000610921868287016107ba565b935050602084013567ffffffffffffffff81111561094257610941610ecb565b5b61094e868287016107cf565b92509250509250925092565b6000602082840312156109705761096f610ed0565b5b600082015167ffffffffffffffff81111561098e5761098d610ecb565b5b61099a84828501610825565b91505092915050565b60006109af8383610af2565b60208301905092915050565b6109c481610cfc565b82525050565b60006109d582610ca6565b6109df8185610cc9565b93506109ea83610c96565b8060005b83811015610a1b578151610a0288826109a3565b9750610a0d83610cbc565b9250506001810190506109ee565b5085935050505092915050565b610a3181610d0e565b82525050565b610a4081610d18565b82525050565b6000610a528385610cda565b9350610a5f838584610d6e565b610a6883610ed5565b840190509392505050565b6000610a7e82610cb1565b610a888185610cda565b9350610a98818560208601610d7d565b610aa181610ed5565b840191505092915050565b6000610ab9603b83610ceb565b9150610ac482610ee6565b604082019050919050565b6000610adc602883610ceb565b9150610ae782610f35565b604082019050919050565b610afb81610d64565b82525050565b610b0a81610d64565b82525050565b6000602082019050610b2560008301846109bb565b92915050565b60006020820190508181036000830152610b4581846109ca565b905092915050565b6000602082019050610b626000830184610a28565b92915050565b6000604082019050610b7d6000830186610a28565b8181036020830152610b90818486610a46565b9050949350505050565b6000602082019050610baf6000830184610a37565b92915050565b60006020820190508181036000830152610bcf8184610a73565b905092915050565b60006020820190508181036000830152610bf081610aac565b9050919050565b60006020820190508181036000830152610c1081610acf565b9050919050565b6000604082019050610c2c6000830185610b01565b610c3960208301846109bb565b9392505050565b6000610c4a610c5b565b9050610c568282610db0565b919050565b6000604051905090565b600067ffffffffffffffff821115610c8057610c7f610e88565b5b610c8982610ed5565b9050602081019050919050565b6000819050602082019050919050565b600081519050919050565b600081519050919050565b6000602082019050919050565b600082825260208201905092915050565b600082825260208201905092915050565b600082825260208201905092915050565b6000610d0782610d44565b9050919050565b6000819050919050565b60007fffffffff0000000000000000000000000000000000000000000000000000000082169050919050565b600073ffffffffffffffffffffffffffffffffffffffff82169050919050565b6000819050919050565b82818337600083830152505050565b60005b83811015610d9b578082015181840152602081019050610d80565b83811115610daa576000848401525b50505050565b610db982610ed5565b810181811067ffffffffffffffff82111715610dd857610dd7610e88565b5b80604052505050565b6000610dec82610d64565b91507fffffffffffffffffffffffffffffffffffffffffffffffffffffffffffffffff821415610e1f57610e1e610e2a565b5b600182019050919050565b7f4e487b7100000000000000000000000000000000000000000000000000000000600052601160045260246000fd5b7f4e487b7100000000000000000000000000000000000000000000000000000000600052603260045260246000fd5b7f4e487b7100000000000000000000000000000000000000000000000000000000600052604160045260246000fd5b600080fd5b600080fd5b600080fd5b600080fd5b600080fd5b600080fd5b6000601f19601f8301169050919050565b7f53656e646572206d75737420696d706c656d656e74204945524337323559202860008201527f6b65792f76616c75652073746f7265292e204120555020646f65730000000000602082015250565b7f53656e646572206d75737420696d706c656d656e74204552433136352e20412060008201527f555020646f65732e000000000000000000000000000000000000000000000000602082015250565b610f8d81610cfc565b8114610f9857600080fd5b50565b610fa481610d0e565b8114610faf57600080fd5b5056fea264697066735822122061f0044f60ac2ec14b14e096f49d3177c803a7f90fc48e76861f143ec6e3aede64736f6c63430008070033",
			"opcodes": "PUSH1 0x80 PUSH1 0x40 MSTORE PUSH32 0x661D289E41FCD282D8F4B9C0AF12C8506D995E5E9E685415517AB5BC8B908247 PUSH1 0x1 SSTORE CALLVALUE DUP1 ISZERO PUSH2 0x34 JUMPI PUSH1 0x0 DUP1 REVERT JUMPDEST POP PUSH2 0xFE8 DUP1 PUSH2 0x44 PUSH1 0x0 CODECOPY PUSH1 0x0 RETURN INVALID PUSH1 0x80 PUSH1 0x40 MSTORE CALLVALUE DUP1 ISZERO PUSH2 0x10 JUMPI PUSH1 0x0 DUP1 REVERT JUMPDEST POP PUSH1 0x4 CALLDATASIZE LT PUSH2 0x57 JUMPI PUSH1 0x0 CALLDATALOAD PUSH1 0xE0 SHR DUP1 PUSH4 0x2501D166 EQ PUSH2 0x5C JUMPI DUP1 PUSH4 0x43A860F4 EQ PUSH2 0x7A JUMPI DUP1 PUSH4 0x66E6B18A EQ PUSH2 0x96 JUMPI DUP1 PUSH4 0xDFF72DEC EQ PUSH2 0xC6 JUMPI DUP1 PUSH4 0xED606AF4 EQ PUSH2 0xF7 JUMPI JUMPDEST PUSH1 0x0 DUP1 REVERT JUMPDEST PUSH2 0x64 PUSH2 0x115 JUMP JUMPDEST PUSH1 0x40 MLOAD PUSH2 0x71 SWAP2 SWAP1 PUSH2 0xB4D JUMP JUMPDEST PUSH1 0x40 MLOAD DUP1 SWAP2 SUB SWAP1 RETURN JUMPDEST PUSH2 0x94 PUSH1 0x4 DUP1 CALLDATASIZE SUB DUP2 ADD SWAP1 PUSH2 0x8F SWAP2 SWAP1 PUSH2 0x8FA JUMP JUMPDEST PUSH2 0x11B JUMP JUMPDEST STOP JUMPDEST PUSH2 0xB0 PUSH1 0x4 DUP1 CALLDATASIZE SUB DUP2 ADD SWAP1 PUSH2 0xAB SWAP2 SWAP1 PUSH2 0x880 JUMP JUMPDEST PUSH2 0x49E JUMP JUMPDEST PUSH1 0x40 MLOAD PUSH2 0xBD SWAP2 SWAP1 PUSH2 0xB2B JUMP JUMPDEST PUSH1 0x40 MLOAD DUP1 SWAP2 SUB SWAP1 RETURN JUMPDEST PUSH2 0xE0 PUSH1 0x4 DUP1 CALLDATASIZE SUB DUP2 ADD SWAP1 PUSH2 0xDB SWAP2 SWAP1 PUSH2 0x8CD JUMP JUMPDEST PUSH2 0x56A JUMP JUMPDEST PUSH1 0x40 MLOAD PUSH2 0xEE SWAP3 SWAP2 SWAP1 PUSH2 0xC17 JUMP JUMPDEST PUSH1 0x40 MLOAD DUP1 SWAP2 SUB SWAP1 RETURN JUMPDEST PUSH2 0xFF PUSH2 0x5AE JUMP JUMPDEST PUSH1 0x40 MLOAD PUSH2 0x10C SWAP2 SWAP1 PUSH2 0xB10 JUMP JUMPDEST PUSH1 0x40 MLOAD DUP1 SWAP2 SUB SWAP1 RETURN JUMPDEST PUSH1 0x1 SLOAD DUP2 JUMP JUMPDEST PUSH1 0x40 MLOAD DUP1 PUSH1 0x40 ADD PUSH1 0x40 MSTORE DUP1 TIMESTAMP DUP2 MSTORE PUSH1 0x20 ADD PUSH2 0x134 PUSH2 0x5D4 JUMP JUMPDEST PUSH20 0xFFFFFFFFFFFFFFFFFFFFFFFFFFFFFFFFFFFFFFFF AND DUP2 MSTORE POP PUSH1 0x0 DUP1 DUP6 DUP2 MSTORE PUSH1 0x20 ADD SWAP1 DUP2 MSTORE PUSH1 0x20 ADD PUSH1 0x0 KECCAK256 PUSH1 0x0 DUP3 ADD MLOAD DUP2 PUSH1 0x0 ADD SSTORE PUSH1 0x20 DUP3 ADD MLOAD DUP2 PUSH1 0x1 ADD PUSH1 0x0 PUSH2 0x100 EXP DUP2 SLOAD DUP2 PUSH20 0xFFFFFFFFFFFFFFFFFFFFFFFFFFFFFFFFFFFFFFFF MUL NOT AND SWAP1 DUP4 PUSH20 0xFFFFFFFFFFFFFFFFFFFFFFFFFFFFFFFFFFFFFFFF AND MUL OR SWAP1 SSTORE POP SWAP1 POP POP PUSH2 0x1C3 PUSH2 0x1BE PUSH2 0x5D4 JUMP JUMPDEST PUSH2 0x5DC JUMP JUMPDEST PUSH2 0x202 JUMPI PUSH1 0x40 MLOAD PUSH32 0x8C379A000000000000000000000000000000000000000000000000000000000 DUP2 MSTORE PUSH1 0x4 ADD PUSH2 0x1F9 SWAP1 PUSH2 0xBF7 JUMP JUMPDEST PUSH1 0x40 MLOAD DUP1 SWAP2 SUB SWAP1 REVERT JUMPDEST PUSH2 0x21A PUSH2 0x20D PUSH2 0x5D4 JUMP JUMPDEST PUSH4 0x714DF77C PUSH1 0xE0 SHL PUSH2 0x629 JUMP JUMPDEST PUSH2 0x259 JUMPI PUSH1 0x40 MLOAD PUSH32 0x8C379A000000000000000000000000000000000000000000000000000000000 DUP2 MSTORE PUSH1 0x4 ADD PUSH2 0x250 SWAP1 PUSH2 0xBD7 JUMP JUMPDEST PUSH1 0x40 MLOAD DUP1 SWAP2 SUB SWAP1 REVERT JUMPDEST PUSH1 0x0 PUSH1 0x40 MLOAD DUP1 PUSH1 0x40 ADD PUSH1 0x40 MSTORE DUP1 PUSH1 0x16 DUP2 MSTORE PUSH1 0x20 ADD PUSH32 0x7365744461746128627974657333322C62797465732900000000000000000000 DUP2 MSTORE POP DUP1 MLOAD SWAP1 PUSH1 0x20 ADD KECCAK256 PUSH1 0x1 SLOAD DUP5 DUP5 PUSH1 0x40 MLOAD PUSH1 0x24 ADD PUSH2 0x2AF SWAP4 SWAP3 SWAP2 SWAP1 PUSH2 0xB68 JUMP JUMPDEST PUSH1 0x40 MLOAD PUSH1 0x20 DUP2 DUP4 SUB SUB DUP2 MSTORE SWAP1 PUSH1 0x40 MSTORE SWAP1 PUSH28 0xFFFFFFFFFFFFFFFFFFFFFFFFFFFFFFFFFFFFFFFFFFFFFFFFFFFFFFFF NOT AND PUSH1 0x20 DUP3 ADD DUP1 MLOAD PUSH28 0xFFFFFFFFFFFFFFFFFFFFFFFFFFFFFFFFFFFFFFFFFFFFFFFFFFFFFFFF DUP4 DUP2 DUP4 AND OR DUP4 MSTORE POP POP POP POP SWAP1 POP PUSH2 0x316 PUSH2 0x5D4 JUMP JUMPDEST PUSH20 0xFFFFFFFFFFFFFFFFFFFFFFFFFFFFFFFFFFFFFFFF AND PUSH4 0x8DA5CB5B PUSH1 0x40 MLOAD DUP2 PUSH4 0xFFFFFFFF AND PUSH1 0xE0 SHL DUP2 MSTORE PUSH1 0x4 ADD PUSH1 0x20 PUSH1 0x40 MLOAD DUP1 DUP4 SUB DUP2 DUP7 DUP1 EXTCODESIZE ISZERO DUP1 ISZERO PUSH2 0x35B JUMPI PUSH1 0x0 DUP1 REVERT JUMPDEST POP GAS STATICCALL ISZERO DUP1 ISZERO PUSH2 0x36F JUMPI RETURNDATASIZE PUSH1 0x0 DUP1 RETURNDATACOPY RETURNDATASIZE PUSH1 0x0 REVERT JUMPDEST POP POP POP POP PUSH1 0x40 MLOAD RETURNDATASIZE PUSH1 0x1F NOT PUSH1 0x1F DUP3 ADD AND DUP3 ADD DUP1 PUSH1 0x40 MSTORE POP DUP2 ADD SWAP1 PUSH2 0x393 SWAP2 SWAP1 PUSH2 0x853 JUMP JUMPDEST PUSH20 0xFFFFFFFFFFFFFFFFFFFFFFFFFFFFFFFFFFFFFFFF AND PUSH4 0x9C5EABE DUP3 PUSH1 0x40 MLOAD DUP3 PUSH4 0xFFFFFFFF AND PUSH1 0xE0 SHL DUP2 MSTORE PUSH1 0x4 ADD PUSH2 0x3CB SWAP2 SWAP1 PUSH2 0xBB5 JUMP JUMPDEST PUSH1 0x0 PUSH1 0x40 MLOAD DUP1 DUP4 SUB DUP2 PUSH1 0x0 DUP8 DUP1 EXTCODESIZE ISZERO DUP1 ISZERO PUSH2 0x3E5 JUMPI PUSH1 0x0 DUP1 REVERT JUMPDEST POP GAS CALL ISZERO DUP1 ISZERO PUSH2 0x3F9 JUMPI RETURNDATASIZE PUSH1 0x0 DUP1 RETURNDATACOPY RETURNDATASIZE PUSH1 0x0 REVERT JUMPDEST POP POP POP POP PUSH1 0x40 MLOAD RETURNDATASIZE PUSH1 0x0 DUP3 RETURNDATACOPY RETURNDATASIZE PUSH1 0x1F NOT PUSH1 0x1F DUP3 ADD AND DUP3 ADD DUP1 PUSH1 0x40 MSTORE POP DUP2 ADD SWAP1 PUSH2 0x422 SWAP2 SWAP1 PUSH2 0x95A JUMP JUMPDEST POP DUP4 PUSH32 0x89AFC73D9070642128AC1A96EA8F614D69E6274B88E568817C5AB86D217BED5A PUSH1 0x40 MLOAD PUSH1 0x40 MLOAD DUP1 SWAP2 SUB SWAP1 LOG2 PUSH2 0x458 PUSH2 0x5D4 JUMP JUMPDEST PUSH1 0x2 PUSH1 0x0 PUSH2 0x100 EXP DUP2 SLOAD DUP2 PUSH20 0xFFFFFFFFFFFFFFFFFFFFFFFFFFFFFFFFFFFFFFFF MUL NOT AND SWAP1 DUP4 PUSH20 0xFFFFFFFFFFFFFFFFFFFFFFFFFFFFFFFFFFFFFFFF AND MUL OR SWAP1 SSTORE POP POP POP POP POP JUMP JUMPDEST PUSH1 0x60 PUSH1 0x0 DUP4 DUP4 SWAP1 POP PUSH8 0xFFFFFFFFFFFFFFFF DUP2 GT ISZERO PUSH2 0x4BF JUMPI PUSH2 0x4BE PUSH2 0xE88 JUMP JUMPDEST JUMPDEST PUSH1 0x40 MLOAD SWAP1 DUP1 DUP3 MSTORE DUP1 PUSH1 0x20 MUL PUSH1 0x20 ADD DUP3 ADD PUSH1 0x40 MSTORE DUP1 ISZERO PUSH2 0x4ED JUMPI DUP2 PUSH1 0x20 ADD PUSH1 0x20 DUP3 MUL DUP1 CALLDATASIZE DUP4 CALLDATACOPY DUP1 DUP3 ADD SWAP2 POP POP SWAP1 POP JUMPDEST POP SWAP1 POP PUSH1 0x0 JUMPDEST DUP5 DUP5 SWAP1 POP DUP2 LT ISZERO PUSH2 0x55F JUMPI PUSH1 0x0 DUP1 DUP7 DUP7 DUP5 DUP2 DUP2 LT PUSH2 0x514 JUMPI PUSH2 0x513 PUSH2 0xE59 JUMP JUMPDEST JUMPDEST SWAP1 POP PUSH1 0x20 MUL ADD CALLDATALOAD DUP2 MSTORE PUSH1 0x20 ADD SWAP1 DUP2 MSTORE PUSH1 0x20 ADD PUSH1 0x0 KECCAK256 PUSH1 0x0 ADD SLOAD DUP3 DUP3 DUP2 MLOAD DUP2 LT PUSH2 0x540 JUMPI PUSH2 0x53F PUSH2 0xE59 JUMP JUMPDEST JUMPDEST PUSH1 0x20 MUL PUSH1 0x20 ADD ADD DUP2 DUP2 MSTORE POP POP DUP1 DUP1 PUSH2 0x557 SWAP1 PUSH2 0xDE1 JUMP JUMPDEST SWAP2 POP POP PUSH2 0x4F3 JUMP JUMPDEST POP DUP1 SWAP2 POP POP SWAP3 SWAP2 POP POP JUMP JUMPDEST PUSH1 0x0 PUSH1 0x20 MSTORE DUP1 PUSH1 0x0 MSTORE PUSH1 0x40 PUSH1 0x0 KECCAK256 PUSH1 0x0 SWAP2 POP SWAP1 POP DUP1 PUSH1 0x0 ADD SLOAD SWAP1 DUP1 PUSH1 0x1 ADD PUSH1 0x0 SWAP1 SLOAD SWAP1 PUSH2 0x100 EXP SWAP1 DIV PUSH20 0xFFFFFFFFFFFFFFFFFFFFFFFFFFFFFFFFFFFFFFFF AND SWAP1 POP DUP3 JUMP JUMPDEST PUSH1 0x2 PUSH1 0x0 SWAP1 SLOAD SWAP1 PUSH2 0x100 EXP SWAP1 DIV PUSH20 0xFFFFFFFFFFFFFFFFFFFFFFFFFFFFFFFFFFFFFFFF AND DUP2 JUMP JUMPDEST PUSH1 0x0 CALLER SWAP1 POP SWAP1 JUMP JUMPDEST PUSH1 0x0 PUSH2 0x608 DUP3 PUSH32 0x1FFC9A700000000000000000000000000000000000000000000000000000000 PUSH2 0x64E JUMP JUMPDEST DUP1 ISZERO PUSH2 0x622 JUMPI POP PUSH2 0x620 DUP3 PUSH4 0xFFFFFFFF PUSH1 0xE0 SHL PUSH2 0x64E JUMP JUMPDEST ISZERO JUMPDEST SWAP1 POP SWAP2 SWAP1 POP JUMP JUMPDEST PUSH1 0x0 PUSH2 0x634 DUP4 PUSH2 0x5DC JUMP JUMPDEST DUP1 ISZERO PUSH2 0x646 JUMPI POP PUSH2 0x645 DUP4 DUP4 PUSH2 0x64E JUMP JUMPDEST JUMPDEST SWAP1 POP SWAP3 SWAP2 POP POP JUMP JUMPDEST PUSH1 0x0 DUP1 PUSH4 0x1FFC9A7 PUSH1 0xE0 SHL DUP4 PUSH1 0x40 MLOAD PUSH1 0x24 ADD PUSH2 0x66A SWAP2 SWAP1 PUSH2 0xB9A JUMP JUMPDEST PUSH1 0x40 MLOAD PUSH1 0x20 DUP2 DUP4 SUB SUB DUP2 MSTORE SWAP1 PUSH1 0x40 MSTORE SWAP1 PUSH28 0xFFFFFFFFFFFFFFFFFFFFFFFFFFFFFFFFFFFFFFFFFFFFFFFFFFFFFFFF NOT AND PUSH1 0x20 DUP3 ADD DUP1 MLOAD PUSH28 0xFFFFFFFFFFFFFFFFFFFFFFFFFFFFFFFFFFFFFFFFFFFFFFFFFFFFFFFF DUP4 DUP2 DUP4 AND OR DUP4 MSTORE POP POP POP POP SWAP1 POP PUSH1 0x0 DUP1 PUSH1 0x0 PUSH1 0x20 PUSH1 0x0 DUP6 MLOAD PUSH1 0x20 DUP8 ADD DUP11 PUSH2 0x7530 STATICCALL SWAP3 POP RETURNDATASIZE SWAP2 POP PUSH1 0x0 MLOAD SWAP1 POP DUP3 DUP1 ISZERO PUSH2 0x6F5 JUMPI POP PUSH1 0x20 DUP3 LT ISZERO JUMPDEST DUP1 ISZERO PUSH2 0x701 JUMPI POP PUSH1 0x0 DUP2 GT JUMPDEST SWAP5 POP POP POP POP POP SWAP3 SWAP2 POP POP JUMP JUMPDEST PUSH1 0x0 PUSH2 0x720 PUSH2 0x71B DUP5 PUSH2 0xC65 JUMP JUMPDEST PUSH2 0xC40 JUMP JUMPDEST SWAP1 POP DUP3 DUP2 MSTORE PUSH1 0x20 DUP2 ADD DUP5 DUP5 DUP5 ADD GT ISZERO PUSH2 0x73C JUMPI PUSH2 0x73B PUSH2 0xEC6 JUMP JUMPDEST JUMPDEST PUSH2 0x747 DUP5 DUP3 DUP6 PUSH2 0xD7D JUMP JUMPDEST POP SWAP4 SWAP3 POP POP POP JUMP JUMPDEST PUSH1 0x0 DUP2 MLOAD SWAP1 POP PUSH2 0x75E DUP2 PUSH2 0xF84 JUMP JUMPDEST SWAP3 SWAP2 POP POP JUMP JUMPDEST PUSH1 0x0 DUP1 DUP4 PUSH1 0x1F DUP5 ADD SLT PUSH2 0x77A JUMPI PUSH2 0x779 PUSH2 0xEBC JUMP JUMPDEST JUMPDEST DUP3 CALLDATALOAD SWAP1 POP PUSH8 0xFFFFFFFFFFFFFFFF DUP2 GT ISZERO PUSH2 0x797 JUMPI PUSH2 0x796 PUSH2 0xEB7 JUMP JUMPDEST JUMPDEST PUSH1 0x20 DUP4 ADD SWAP2 POP DUP4 PUSH1 0x20 DUP3 MUL DUP4 ADD GT ISZERO PUSH2 0x7B3 JUMPI PUSH2 0x7B2 PUSH2 0xEC1 JUMP JUMPDEST JUMPDEST SWAP3 POP SWAP3 SWAP1 POP JUMP JUMPDEST PUSH1 0x0 DUP2 CALLDATALOAD SWAP1 POP PUSH2 0x7C9 DUP2 PUSH2 0xF9B JUMP JUMPDEST SWAP3 SWAP2 POP POP JUMP JUMPDEST PUSH1 0x0 DUP1 DUP4 PUSH1 0x1F DUP5 ADD SLT PUSH2 0x7E5 JUMPI PUSH2 0x7E4 PUSH2 0xEBC JUMP JUMPDEST JUMPDEST DUP3 CALLDATALOAD SWAP1 POP PUSH8 0xFFFFFFFFFFFFFFFF DUP2 GT ISZERO PUSH2 0x802 JUMPI PUSH2 0x801 PUSH2 0xEB7 JUMP JUMPDEST JUMPDEST PUSH1 0x20 DUP4 ADD SWAP2 POP DUP4 PUSH1 0x1 DUP3 MUL DUP4 ADD GT ISZERO PUSH2 0x81E JUMPI PUSH2 0x81D PUSH2 0xEC1 JUMP JUMPDEST JUMPDEST SWAP3 POP SWAP3 SWAP1 POP JUMP JUMPDEST PUSH1 0x0 DUP3 PUSH1 0x1F DUP4 ADD SLT PUSH2 0x83A JUMPI PUSH2 0x839 PUSH2 0xEBC JUMP JUMPDEST JUMPDEST DUP2 MLOAD PUSH2 0x84A DUP5 DUP3 PUSH1 0x20 DUP7 ADD PUSH2 0x70D JUMP JUMPDEST SWAP2 POP POP SWAP3 SWAP2 POP POP JUMP JUMPDEST PUSH1 0x0 PUSH1 0x20 DUP3 DUP5 SUB SLT ISZERO PUSH2 0x869 JUMPI PUSH2 0x868 PUSH2 0xED0 JUMP JUMPDEST JUMPDEST PUSH1 0x0 PUSH2 0x877 DUP5 DUP3 DUP6 ADD PUSH2 0x74F JUMP JUMPDEST SWAP2 POP POP SWAP3 SWAP2 POP POP JUMP JUMPDEST PUSH1 0x0 DUP1 PUSH1 0x20 DUP4 DUP6 SUB SLT ISZERO PUSH2 0x897 JUMPI PUSH2 0x896 PUSH2 0xED0 JUMP JUMPDEST JUMPDEST PUSH1 0x0 DUP4 ADD CALLDATALOAD PUSH8 0xFFFFFFFFFFFFFFFF DUP2 GT ISZERO PUSH2 0x8B5 JUMPI PUSH2 0x8B4 PUSH2 0xECB JUMP JUMPDEST JUMPDEST PUSH2 0x8C1 DUP6 DUP3 DUP7 ADD PUSH2 0x764 JUMP JUMPDEST SWAP3 POP SWAP3 POP POP SWAP3 POP SWAP3 SWAP1 POP JUMP JUMPDEST PUSH1 0x0 PUSH1 0x20 DUP3 DUP5 SUB SLT ISZERO PUSH2 0x8E3 JUMPI PUSH2 0x8E2 PUSH2 0xED0 JUMP JUMPDEST JUMPDEST PUSH1 0x0 PUSH2 0x8F1 DUP5 DUP3 DUP6 ADD PUSH2 0x7BA JUMP JUMPDEST SWAP2 POP POP SWAP3 SWAP2 POP POP JUMP JUMPDEST PUSH1 0x0 DUP1 PUSH1 0x0 PUSH1 0x40 DUP5 DUP7 SUB SLT ISZERO PUSH2 0x913 JUMPI PUSH2 0x912 PUSH2 0xED0 JUMP JUMPDEST JUMPDEST PUSH1 0x0 PUSH2 0x921 DUP7 DUP3 DUP8 ADD PUSH2 0x7BA JUMP JUMPDEST SWAP4 POP POP PUSH1 0x20 DUP5 ADD CALLDATALOAD PUSH8 0xFFFFFFFFFFFFFFFF DUP2 GT ISZERO PUSH2 0x942 JUMPI PUSH2 0x941 PUSH2 0xECB JUMP JUMPDEST JUMPDEST PUSH2 0x94E DUP7 DUP3 DUP8 ADD PUSH2 0x7CF JUMP JUMPDEST SWAP3 POP SWAP3 POP POP SWAP3 POP SWAP3 POP SWAP3 JUMP JUMPDEST PUSH1 0x0 PUSH1 0x20 DUP3 DUP5 SUB SLT ISZERO PUSH2 0x970 JUMPI PUSH2 0x96F PUSH2 0xED0 JUMP JUMPDEST JUMPDEST PUSH1 0x0 DUP3 ADD MLOAD PUSH8 0xFFFFFFFFFFFFFFFF DUP2 GT ISZERO PUSH2 0x98E JUMPI PUSH2 0x98D PUSH2 0xECB JUMP JUMPDEST JUMPDEST PUSH2 0x99A DUP5 DUP3 DUP6 ADD PUSH2 0x825 JUMP JUMPDEST SWAP2 POP POP SWAP3 SWAP2 POP POP JUMP JUMPDEST PUSH1 0x0 PUSH2 0x9AF DUP4 DUP4 PUSH2 0xAF2 JUMP JUMPDEST PUSH1 0x20 DUP4 ADD SWAP1 POP SWAP3 SWAP2 POP POP JUMP JUMPDEST PUSH2 0x9C4 DUP2 PUSH2 0xCFC JUMP JUMPDEST DUP3 MSTORE POP POP JUMP JUMPDEST PUSH1 0x0 PUSH2 0x9D5 DUP3 PUSH2 0xCA6 JUMP JUMPDEST PUSH2 0x9DF DUP2 DUP6 PUSH2 0xCC9 JUMP JUMPDEST SWAP4 POP PUSH2 0x9EA DUP4 PUSH2 0xC96 JUMP JUMPDEST DUP1 PUSH1 0x0 JUMPDEST DUP4 DUP2 LT ISZERO PUSH2 0xA1B JUMPI DUP2 MLOAD PUSH2 0xA02 DUP9 DUP3 PUSH2 0x9A3 JUMP JUMPDEST SWAP8 POP PUSH2 0xA0D DUP4 PUSH2 0xCBC JUMP JUMPDEST SWAP3 POP POP PUSH1 0x1 DUP2 ADD SWAP1 POP PUSH2 0x9EE JUMP JUMPDEST POP DUP6 SWAP4 POP POP POP POP SWAP3 SWAP2 POP POP JUMP JUMPDEST PUSH2 0xA31 DUP2 PUSH2 0xD0E JUMP JUMPDEST DUP3 MSTORE POP POP JUMP JUMPDEST PUSH2 0xA40 DUP2 PUSH2 0xD18 JUMP JUMPDEST DUP3 MSTORE POP POP JUMP JUMPDEST PUSH1 0x0 PUSH2 0xA52 DUP4 DUP6 PUSH2 0xCDA JUMP JUMPDEST SWAP4 POP PUSH2 0xA5F DUP4 DUP6 DUP5 PUSH2 0xD6E JUMP JUMPDEST PUSH2 0xA68 DUP4 PUSH2 0xED5 JUMP JUMPDEST DUP5 ADD SWAP1 POP SWAP4 SWAP3 POP POP POP JUMP JUMPDEST PUSH1 0x0 PUSH2 0xA7E DUP3 PUSH2 0xCB1 JUMP JUMPDEST PUSH2 0xA88 DUP2 DUP6 PUSH2 0xCDA JUMP JUMPDEST SWAP4 POP PUSH2 0xA98 DUP2 DUP6 PUSH1 0x20 DUP7 ADD PUSH2 0xD7D JUMP JUMPDEST PUSH2 0xAA1 DUP2 PUSH2 0xED5 JUMP JUMPDEST DUP5 ADD SWAP2 POP POP SWAP3 SWAP2 POP POP JUMP JUMPDEST PUSH1 0x0 PUSH2 0xAB9 PUSH1 0x3B DUP4 PUSH2 0xCEB JUMP JUMPDEST SWAP2 POP PUSH2 0xAC4 DUP3 PUSH2 0xEE6 JUMP JUMPDEST PUSH1 0x40 DUP3 ADD SWAP1 POP SWAP2 SWAP1 POP JUMP JUMPDEST PUSH1 0x0 PUSH2 0xADC PUSH1 0x28 DUP4 PUSH2 0xCEB JUMP JUMPDEST SWAP2 POP PUSH2 0xAE7 DUP3 PUSH2 0xF35 JUMP JUMPDEST PUSH1 0x40 DUP3 ADD SWAP1 POP SWAP2 SWAP1 POP JUMP JUMPDEST PUSH2 0xAFB DUP2 PUSH2 0xD64 JUMP JUMPDEST DUP3 MSTORE POP POP JUMP JUMPDEST PUSH2 0xB0A DUP2 PUSH2 0xD64 JUMP JUMPDEST DUP3 MSTORE POP POP JUMP JUMPDEST PUSH1 0x0 PUSH1 0x20 DUP3 ADD SWAP1 POP PUSH2 0xB25 PUSH1 0x0 DUP4 ADD DUP5 PUSH2 0x9BB JUMP JUMPDEST SWAP3 SWAP2 POP POP JUMP JUMPDEST PUSH1 0x0 PUSH1 0x20 DUP3 ADD SWAP1 POP DUP2 DUP2 SUB PUSH1 0x0 DUP4 ADD MSTORE PUSH2 0xB45 DUP2 DUP5 PUSH2 0x9CA JUMP JUMPDEST SWAP1 POP SWAP3 SWAP2 POP POP JUMP JUMPDEST PUSH1 0x0 PUSH1 0x20 DUP3 ADD SWAP1 POP PUSH2 0xB62 PUSH1 0x0 DUP4 ADD DUP5 PUSH2 0xA28 JUMP JUMPDEST SWAP3 SWAP2 POP POP JUMP JUMPDEST PUSH1 0x0 PUSH1 0x40 DUP3 ADD SWAP1 POP PUSH2 0xB7D PUSH1 0x0 DUP4 ADD DUP7 PUSH2 0xA28 JUMP JUMPDEST DUP2 DUP2 SUB PUSH1 0x20 DUP4 ADD MSTORE PUSH2 0xB90 DUP2 DUP5 DUP7 PUSH2 0xA46 JUMP JUMPDEST SWAP1 POP SWAP5 SWAP4 POP POP POP POP JUMP JUMPDEST PUSH1 0x0 PUSH1 0x20 DUP3 ADD SWAP1 POP PUSH2 0xBAF PUSH1 0x0 DUP4 ADD DUP5 PUSH2 0xA37 JUMP JUMPDEST SWAP3 SWAP2 POP POP JUMP JUMPDEST PUSH1 0x0 PUSH1 0x20 DUP3 ADD SWAP1 POP DUP2 DUP2 SUB PUSH1 0x0 DUP4 ADD MSTORE PUSH2 0xBCF DUP2 DUP5 PUSH2 0xA73 JUMP JUMPDEST SWAP1 POP SWAP3 SWAP2 POP POP JUMP JUMPDEST PUSH1 0x0 PUSH1 0x20 DUP3 ADD SWAP1 POP DUP2 DUP2 SUB PUSH1 0x0 DUP4 ADD MSTORE PUSH2 0xBF0 DUP2 PUSH2 0xAAC JUMP JUMPDEST SWAP1 POP SWAP2 SWAP1 POP JUMP JUMPDEST PUSH1 0x0 PUSH1 0x20 DUP3 ADD SWAP1 POP DUP2 DUP2 SUB PUSH1 0x0 DUP4 ADD MSTORE PUSH2 0xC10 DUP2 PUSH2 0xACF JUMP JUMPDEST SWAP1 POP SWAP2 SWAP1 POP JUMP JUMPDEST PUSH1 0x0 PUSH1 0x40 DUP3 ADD SWAP1 POP PUSH2 0xC2C PUSH1 0x0 DUP4 ADD DUP6 PUSH2 0xB01 JUMP JUMPDEST PUSH2 0xC39 PUSH1 0x20 DUP4 ADD DUP5 PUSH2 0x9BB JUMP JUMPDEST SWAP4 SWAP3 POP POP POP JUMP JUMPDEST PUSH1 0x0 PUSH2 0xC4A PUSH2 0xC5B JUMP JUMPDEST SWAP1 POP PUSH2 0xC56 DUP3 DUP3 PUSH2 0xDB0 JUMP JUMPDEST SWAP2 SWAP1 POP JUMP JUMPDEST PUSH1 0x0 PUSH1 0x40 MLOAD SWAP1 POP SWAP1 JUMP JUMPDEST PUSH1 0x0 PUSH8 0xFFFFFFFFFFFFFFFF DUP3 GT ISZERO PUSH2 0xC80 JUMPI PUSH2 0xC7F PUSH2 0xE88 JUMP JUMPDEST JUMPDEST PUSH2 0xC89 DUP3 PUSH2 0xED5 JUMP JUMPDEST SWAP1 POP PUSH1 0x20 DUP2 ADD SWAP1 POP SWAP2 SWAP1 POP JUMP JUMPDEST PUSH1 0x0 DUP2 SWAP1 POP PUSH1 0x20 DUP3 ADD SWAP1 POP SWAP2 SWAP1 POP JUMP JUMPDEST PUSH1 0x0 DUP2 MLOAD SWAP1 POP SWAP2 SWAP1 POP JUMP JUMPDEST PUSH1 0x0 DUP2 MLOAD SWAP1 POP SWAP2 SWAP1 POP JUMP JUMPDEST PUSH1 0x0 PUSH1 0x20 DUP3 ADD SWAP1 POP SWAP2 SWAP1 POP JUMP JUMPDEST PUSH1 0x0 DUP3 DUP3 MSTORE PUSH1 0x20 DUP3 ADD SWAP1 POP SWAP3 SWAP2 POP POP JUMP JUMPDEST PUSH1 0x0 DUP3 DUP3 MSTORE PUSH1 0x20 DUP3 ADD SWAP1 POP SWAP3 SWAP2 POP POP JUMP JUMPDEST PUSH1 0x0 DUP3 DUP3 MSTORE PUSH1 0x20 DUP3 ADD SWAP1 POP SWAP3 SWAP2 POP POP JUMP JUMPDEST PUSH1 0x0 PUSH2 0xD07 DUP3 PUSH2 0xD44 JUMP JUMPDEST SWAP1 POP SWAP2 SWAP1 POP JUMP JUMPDEST PUSH1 0x0 DUP2 SWAP1 POP SWAP2 SWAP1 POP JUMP JUMPDEST PUSH1 0x0 PUSH32 0xFFFFFFFF00000000000000000000000000000000000000000000000000000000 DUP3 AND SWAP1 POP SWAP2 SWAP1 POP JUMP JUMPDEST PUSH1 0x0 PUSH20 0xFFFFFFFFFFFFFFFFFFFFFFFFFFFFFFFFFFFFFFFF DUP3 AND SWAP1 POP SWAP2 SWAP1 POP JUMP JUMPDEST PUSH1 0x0 DUP2 SWAP1 POP SWAP2 SWAP1 POP JUMP JUMPDEST DUP3 DUP2 DUP4 CALLDATACOPY PUSH1 0x0 DUP4 DUP4 ADD MSTORE POP POP POP JUMP JUMPDEST PUSH1 0x0 JUMPDEST DUP4 DUP2 LT ISZERO PUSH2 0xD9B JUMPI DUP1 DUP3 ADD MLOAD DUP2 DUP5 ADD MSTORE PUSH1 0x20 DUP2 ADD SWAP1 POP PUSH2 0xD80 JUMP JUMPDEST DUP4 DUP2 GT ISZERO PUSH2 0xDAA JUMPI PUSH1 0x0 DUP5 DUP5 ADD MSTORE JUMPDEST POP POP POP POP JUMP JUMPDEST PUSH2 0xDB9 DUP3 PUSH2 0xED5 JUMP JUMPDEST DUP2 ADD DUP2 DUP2 LT PUSH8 0xFFFFFFFFFFFFFFFF DUP3 GT OR ISZERO PUSH2 0xDD8 JUMPI PUSH2 0xDD7 PUSH2 0xE88 JUMP JUMPDEST JUMPDEST DUP1 PUSH1 0x40 MSTORE POP POP POP JUMP JUMPDEST PUSH1 0x0 PUSH2 0xDEC DUP3 PUSH2 0xD64 JUMP JUMPDEST SWAP2 POP PUSH32 0xFFFFFFFFFFFFFFFFFFFFFFFFFFFFFFFFFFFFFFFFFFFFFFFFFFFFFFFFFFFFFFFF DUP3 EQ ISZERO PUSH2 0xE1F JUMPI PUSH2 0xE1E PUSH2 0xE2A JUMP JUMPDEST JUMPDEST PUSH1 0x1 DUP3 ADD SWAP1 POP SWAP2 SWAP1 POP JUMP JUMPDEST PUSH32 0x4E487B7100000000000000000000000000000000000000000000000000000000 PUSH1 0x0 MSTORE PUSH1 0x11 PUSH1 0x4 MSTORE PUSH1 0x24 PUSH1 0x0 REVERT JUMPDEST PUSH32 0x4E487B7100000000000000000000000000000000000000000000000000000000 PUSH1 0x0 MSTORE PUSH1 0x32 PUSH1 0x4 MSTORE PUSH1 0x24 PUSH1 0x0 REVERT JUMPDEST PUSH32 0x4E487B7100000000000000000000000000000000000000000000000000000000 PUSH1 0x0 MSTORE PUSH1 0x41 PUSH1 0x4 MSTORE PUSH1 0x24 PUSH1 0x0 REVERT JUMPDEST PUSH1 0x0 DUP1 REVERT JUMPDEST PUSH1 0x0 DUP1 REVERT JUMPDEST PUSH1 0x0 DUP1 REVERT JUMPDEST PUSH1 0x0 DUP1 REVERT JUMPDEST PUSH1 0x0 DUP1 REVERT JUMPDEST PUSH1 0x0 DUP1 REVERT JUMPDEST PUSH1 0x0 PUSH1 0x1F NOT PUSH1 0x1F DUP4 ADD AND SWAP1 POP SWAP2 SWAP1 POP JUMP JUMPDEST PUSH32 0x53656E646572206D75737420696D706C656D656E742049455243373235592028 PUSH1 0x0 DUP3 ADD MSTORE PUSH32 0x6B65792F76616C75652073746F7265292E204120555020646F65730000000000 PUSH1 0x20 DUP3 ADD MSTORE POP JUMP JUMPDEST PUSH32 0x53656E646572206D75737420696D706C656D656E74204552433136352E204120 PUSH1 0x0 DUP3 ADD MSTORE PUSH32 0x555020646F65732E000000000000000000000000000000000000000000000000 PUSH1 0x20 DUP3 ADD MSTORE POP JUMP JUMPDEST PUSH2 0xF8D DUP2 PUSH2 0xCFC JUMP JUMPDEST DUP2 EQ PUSH2 0xF98 JUMPI PUSH1 0x0 DUP1 REVERT JUMPDEST POP JUMP JUMPDEST PUSH2 0xFA4 DUP2 PUSH2 0xD0E JUMP JUMPDEST DUP2 EQ PUSH2 0xFAF JUMPI PUSH1 0x0 DUP1 REVERT JUMPDEST POP JUMP INVALID LOG2 PUSH5 0x6970667358 0x22 SLT KECCAK256 PUSH2 0xF004 0x4F PUSH1 0xAC 0x2E 0xC1 0x4B EQ 0xE0 SWAP7 DELEGATECALL SWAP14 BALANCE PUSH24 0xC803A7F90FC48E76861F143EC6E3AEDE64736F6C63430008 SMOD STOP CALLER "
		},
		"gasEstimates": {
			"creation": {
				"codeDepositCost": "814400",
				"executionCost": "22957",
				"totalCost": "837357"
			},
			"external": {
				"getTimestamps(bytes32[])": "infinite",
				"lastMsgSender()": "2580",
				"post(bytes32,bytes)": "infinite",
				"posts(bytes32)": "5120",
				"registryKey()": "2407"
			}
		},
		"methodIdentifiers": {
			"getTimestamps(bytes32[])": "66e6b18a",
			"lastMsgSender()": "ed606af4",
			"post(bytes32,bytes)": "43a860f4",
			"posts(bytes32)": "dff72dec",
			"registryKey()": "2501d166"
		}
	},
	"abi": [
		{
			"anonymous": false,
			"inputs": [
				{
					"indexed": true,
					"internalType": "bytes32",
					"name": "postHash",
					"type": "bytes32"
				}
			],
			"name": "NewPost",
			"type": "event"
		},
		{
			"inputs": [
				{
					"internalType": "bytes32[]",
					"name": "hashes",
					"type": "bytes32[]"
				}
			],
			"name": "getTimestamps",
			"outputs": [
				{
					"internalType": "uint256[]",
					"name": "",
					"type": "uint256[]"
				}
			],
			"stateMutability": "view",
			"type": "function"
		},
		{
			"inputs": [],
			"name": "lastMsgSender",
			"outputs": [
				{
					"internalType": "address",
					"name": "",
					"type": "address"
				}
			],
			"stateMutability": "view",
			"type": "function"
		},
		{
			"inputs": [
				{
					"internalType": "bytes32",
					"name": "postHash",
					"type": "bytes32"
				},
				{
					"internalType": "bytes",
					"name": "jsonURL",
					"type": "bytes"
				}
			],
			"name": "post",
			"outputs": [],
			"stateMutability": "nonpayable",
			"type": "function"
		},
		{
			"inputs": [
				{
					"internalType": "bytes32",
					"name": "",
					"type": "bytes32"
				}
			],
			"name": "posts",
			"outputs": [
				{
					"internalType": "uint256",
					"name": "timestamp",
					"type": "uint256"
				},
				{
					"internalType": "address",
					"name": "author",
					"type": "address"
				}
			],
			"stateMutability": "view",
			"type": "function"
		},
		{
			"inputs": [],
			"name": "registryKey",
			"outputs": [
				{
					"internalType": "bytes32",
					"name": "",
					"type": "bytes32"
				}
			],
			"stateMutability": "view",
			"type": "function"
		}
	]
}