{
    "_format": "hh-sol-artifact-1",
    "contractName": "ERC725Y",
    "sourceName": "@erc725/smart-contracts/contracts/ERC725Y.sol",
    "abi": [
        {
            "inputs": [
                {
                    "internalType": "address",
                    "name": "_newOwner",
                    "type": "address"
                }
            ],
            "stateMutability": "nonpayable",
            "type": "constructor"
        },
        {
            "anonymous": false,
            "inputs": [
                {
                    "indexed": true,
                    "internalType": "bytes32",
                    "name": "key",
                    "type": "bytes32"
                },
                {
                    "indexed": false,
                    "internalType": "bytes",
                    "name": "value",
                    "type": "bytes"
                }
            ],
            "name": "DataChanged",
            "type": "event"
        },
        {
            "anonymous": false,
            "inputs": [
                {
                    "indexed": true,
                    "internalType": "address",
                    "name": "previousOwner",
                    "type": "address"
                },
                {
                    "indexed": true,
                    "internalType": "address",
                    "name": "newOwner",
                    "type": "address"
                }
            ],
            "name": "OwnershipTransferred",
            "type": "event"
        },
        {
            "inputs": [
                {
                    "internalType": "bytes32[]",
                    "name": "_keys",
                    "type": "bytes32[]"
                }
            ],
            "name": "getData",
            "outputs": [
                {
                    "internalType": "bytes[]",
                    "name": "values",
                    "type": "bytes[]"
                }
            ],
            "stateMutability": "view",
            "type": "function"
        },
        {
            "inputs": [],
            "name": "owner",
            "outputs": [
                {
                    "internalType": "address",
                    "name": "",
                    "type": "address"
                }
            ],
            "stateMutability": "view",
            "type": "function"
        },
        {
            "inputs": [],
            "name": "renounceOwnership",
            "outputs": [],
            "stateMutability": "nonpayable",
            "type": "function"
        },
        {
            "inputs": [
                {
                    "internalType": "bytes32[]",
                    "name": "_keys",
                    "type": "bytes32[]"
                },
                {
                    "internalType": "bytes[]",
                    "name": "_values",
                    "type": "bytes[]"
                }
            ],
            "name": "setData",
            "outputs": [],
            "stateMutability": "nonpayable",
            "type": "function"
        },
        {
            "inputs": [
                {
                    "internalType": "bytes4",
                    "name": "interfaceId",
                    "type": "bytes4"
                }
            ],
            "name": "supportsInterface",
            "outputs": [
                {
                    "internalType": "bool",
                    "name": "",
                    "type": "bool"
                }
            ],
            "stateMutability": "view",
            "type": "function"
        },
        {
            "inputs": [
                {
                    "internalType": "address",
                    "name": "newOwner",
                    "type": "address"
                }
            ],
            "name": "transferOwnership",
            "outputs": [],
            "stateMutability": "nonpayable",
            "type": "function"
        }
    ],
    "bytecode": "0x608060405234801561001057600080fd5b50604051610dad380380610dad83398101604081905261002f916101cf565b6000546001600160a01b03828116911614610057576100578161006d60201b6104c61760201c565b610067635a988c0f60e01b6100fd565b506101ff565b600054600160a01b900460ff16156100de5760405162461bcd60e51b815260206004820152602960248201527f4f776e61626c653a206f776e65722063616e206f6e6c7920626520696e69746960448201526861746564206f6e636560b81b60648201526084015b60405180910390fd5b6000805460ff60a01b1916600160a01b1790556100fa8161017f565b50565b6001600160e01b031980821614156101575760405162461bcd60e51b815260206004820152601c60248201527f4552433136353a20696e76616c696420696e746572666163652069640000000060448201526064016100d5565b6001600160e01b0319166000908152600160208190526040909120805460ff19169091179055565b600080546001600160a01b038381166001600160a01b0319831681178455604051919092169283917f8be0079c531659141344cd1fd0a4f28419497f9722a3daafe3b4186f6b6457e09190a35050565b6000602082840312156101e157600080fd5b81516001600160a01b03811681146101f857600080fd5b9392505050565b610b9f8061020e6000396000f3fe608060405234801561001057600080fd5b50600436106100725760003560e01c8063715018a611610050578063715018a6146100d45780638da5cb5b146100dc578063f2fde38b146100f757600080fd5b806301ffc9a71461007757806314a6e2931461009f5780634e3e6e9c146100b4575b600080fd5b61008a610085366004610986565b61010a565b60405190151581526020015b60405180910390f35b6100b26100ad36600461085b565b610193565b005b6100c76100c236600461081e565b6102c8565b6040516100969190610a15565b6100b261037e565b6000546040516001600160a01b039091168152602001610096565b6100b26101053660046107ee565b6103e4565b60007f01ffc9a7000000000000000000000000000000000000000000000000000000007fffffffff000000000000000000000000000000000000000000000000000000008316148061018d57507fffffffff00000000000000000000000000000000000000000000000000000000821660009081526001602052604090205460ff165b92915050565b6000546001600160a01b031633146101f25760405162461bcd60e51b815260206004820181905260248201527f4f776e61626c653a2063616c6c6572206973206e6f7420746865206f776e657260448201526064015b60405180910390fd5b80518251146102695760405162461bcd60e51b815260206004820152602660248201527f4b657973206c656e677468206e6f7420657175616c20746f2076616c7565732060448201527f6c656e677468000000000000000000000000000000000000000000000000000060648201526084016101e9565b60005b82518110156102c3576102b183828151811061028a5761028a610b3d565b60200260200101518383815181106102a4576102a4610b3d565b602002602001015161057d565b806102bb81610b14565b91505061026c565b505050565b6060815167ffffffffffffffff8111156102e4576102e4610b53565b60405190808252806020026020018201604052801561031757816020015b60608152602001906001900390816103025790505b50905060005b82518110156103785761034883828151811061033b5761033b610b3d565b60200260200101516105d9565b82828151811061035a5761035a610b3d565b6020026020010181905250808061037090610b14565b91505061031d565b50919050565b6000546001600160a01b031633146103d85760405162461bcd60e51b815260206004820181905260248201527f4f776e61626c653a2063616c6c6572206973206e6f7420746865206f776e657260448201526064016101e9565b6103e2600061067b565b565b6000546001600160a01b0316331461043e5760405162461bcd60e51b815260206004820181905260248201527f4f776e61626c653a2063616c6c6572206973206e6f7420746865206f776e657260448201526064016101e9565b6001600160a01b0381166104ba5760405162461bcd60e51b815260206004820152602660248201527f4f776e61626c653a206e6577206f776e657220697320746865207a65726f206160448201527f646472657373000000000000000000000000000000000000000000000000000060648201526084016101e9565b6104c38161067b565b50565b600054600160a01b900460ff16156105465760405162461bcd60e51b815260206004820152602960248201527f4f776e61626c653a206f776e65722063616e206f6e6c7920626520696e69746960448201527f61746564206f6e6365000000000000000000000000000000000000000000000060648201526084016101e9565b600080547fffffffffffffffffffffff00ffffffffffffffffffffffffffffffffffffffff16600160a01b1790556104c38161067b565b6000828152600260209081526040909120825161059c928401906106e3565b50817fece574603820d07bc9b91f2a932baadf4628aabcb8afba49776529c14a6104b2826040516105cd9190610a77565b60405180910390a25050565b60008181526002602052604090208054606091906105f690610adf565b80601f016020809104026020016040519081016040528092919081815260200182805461062290610adf565b801561066f5780601f106106445761010080835404028352916020019161066f565b820191906000526020600020905b81548152906001019060200180831161065257829003601f168201915b50505050509050919050565b600080546001600160a01b038381167fffffffffffffffffffffffff0000000000000000000000000000000000000000831681178455604051919092169283917f8be0079c531659141344cd1fd0a4f28419497f9722a3daafe3b4186f6b6457e09190a35050565b8280546106ef90610adf565b90600052602060002090601f0160209004810192826107115760008555610757565b82601f1061072a57805160ff1916838001178555610757565b82800160010185558215610757579182015b8281111561075757825182559160200191906001019061073c565b50610763929150610767565b5090565b5b808211156107635760008155600101610768565b600082601f83011261078d57600080fd5b813560206107a261079d83610abb565b610a8a565b80838252828201915082860187848660051b89010111156107c257600080fd5b60005b858110156107e1578135845292840192908401906001016107c5565b5090979650505050505050565b60006020828403121561080057600080fd5b81356001600160a01b038116811461081757600080fd5b9392505050565b60006020828403121561083057600080fd5b813567ffffffffffffffff81111561084757600080fd5b6108538482850161077c565b949350505050565b600080604080848603121561086f57600080fd5b833567ffffffffffffffff8082111561088757600080fd5b6108938783880161077c565b94506020915081860135818111156108aa57600080fd5b8601601f810188136108bb57600080fd5b80356108c961079d82610abb565b8082825285820191508584018b878560051b87010111156108e957600080fd5b60005b848110156109745781358781111561090357600080fd5b8601603f81018e1361091457600080fd5b888101358881111561092857610928610b53565b61093a601f8201601f19168b01610a8a565b8181528f8c83850101111561094e57600080fd5b818c84018c83013760009181018b019190915285525092870192908701906001016108ec565b50989b909a5098505050505050505050565b60006020828403121561099857600080fd5b81357fffffffff000000000000000000000000000000000000000000000000000000008116811461081757600080fd5b6000815180845260005b818110156109ee576020818501810151868301820152016109d2565b81811115610a00576000602083870101525b50601f01601f19169290920160200192915050565b6000602080830181845280855180835260408601915060408160051b870101925083870160005b82811015610a6a57603f19888603018452610a588583516109c8565b94509285019290850190600101610a3c565b5092979650505050505050565b60208152600061081760208301846109c8565b604051601f8201601f1916810167ffffffffffffffff81118282101715610ab357610ab3610b53565b604052919050565b600067ffffffffffffffff821115610ad557610ad5610b53565b5060051b60200190565b600181811c90821680610af357607f821691505b6020821081141561037857634e487b7160e01b600052602260045260246000fd5b6000600019821415610b3657634e487b7160e01b600052601160045260246000fd5b5060010190565b634e487b7160e01b600052603260045260246000fd5b634e487b7160e01b600052604160045260246000fdfea2646970667358221220ed1b44211b474bdfb6811a23ca7092cb37dd35f6ca48f41850be71ad5334309664736f6c63430008070033",
    "linkReferences": {},
    "deployedLinkReferences": {}
}