{
    "_format": "hh-sol-artifact-1",
    "contractName": "LSP6KeyManager",
    "sourceName": "contracts/LSP6KeyManager/LSP6KeyManager.sol",
    "abi": [
        {
            "inputs": [
                {
                    "internalType": "address",
                    "name": "_account",
                    "type": "address"
                }
            ],
            "stateMutability": "nonpayable",
            "type": "constructor"
        },
        {
            "inputs": [
                {
                    "internalType": "address",
                    "name": "from",
                    "type": "address"
                },
                {
                    "internalType": "address",
                    "name": "disallowedAddress",
                    "type": "address"
                }
            ],
            "name": "NotAllowedAddress",
            "type": "error"
        },
        {
            "inputs": [
                {
                    "internalType": "address",
                    "name": "from",
                    "type": "address"
                },
                {
                    "internalType": "bytes4",
                    "name": "disallowedFunction",
                    "type": "bytes4"
                }
            ],
            "name": "NotAllowedFunction",
            "type": "error"
        },
        {
            "inputs": [
                {
                    "internalType": "address",
                    "name": "from",
                    "type": "address"
                },
                {
                    "internalType": "string",
                    "name": "permission",
                    "type": "string"
                }
            ],
            "name": "NotAuthorised",
            "type": "error"
        },
        {
            "anonymous": false,
            "inputs": [
                {
                    "indexed": true,
                    "internalType": "uint256",
                    "name": "_value",
                    "type": "uint256"
                },
                {
                    "indexed": false,
                    "internalType": "bytes",
                    "name": "_data",
                    "type": "bytes"
                }
            ],
            "name": "Executed",
            "type": "event"
        },
        {
            "inputs": [],
            "name": "account",
            "outputs": [
                {
                    "internalType": "contract ERC725",
                    "name": "",
                    "type": "address"
                }
            ],
            "stateMutability": "view",
            "type": "function"
        },
        {
            "inputs": [
                {
                    "internalType": "bytes",
                    "name": "_data",
                    "type": "bytes"
                }
            ],
            "name": "execute",
            "outputs": [
                {
                    "internalType": "bytes",
                    "name": "",
                    "type": "bytes"
                }
            ],
            "stateMutability": "payable",
            "type": "function"
        },
        {
            "inputs": [
                {
                    "internalType": "address",
                    "name": "_signedFor",
                    "type": "address"
                },
                {
                    "internalType": "uint256",
                    "name": "_nonce",
                    "type": "uint256"
                },
                {
                    "internalType": "bytes",
                    "name": "_data",
                    "type": "bytes"
                },
                {
                    "internalType": "bytes",
                    "name": "_signature",
                    "type": "bytes"
                }
            ],
            "name": "executeRelayCall",
            "outputs": [
                {
                    "internalType": "bytes",
                    "name": "",
                    "type": "bytes"
                }
            ],
            "stateMutability": "payable",
            "type": "function"
        },
        {
            "inputs": [
                {
                    "internalType": "address",
                    "name": "_from",
                    "type": "address"
                },
                {
                    "internalType": "uint256",
                    "name": "_channel",
                    "type": "uint256"
                }
            ],
            "name": "getNonce",
            "outputs": [
                {
                    "internalType": "uint256",
                    "name": "",
                    "type": "uint256"
                }
            ],
            "stateMutability": "view",
            "type": "function"
        },
        {
            "inputs": [
                {
                    "internalType": "bytes32",
                    "name": "_hash",
                    "type": "bytes32"
                },
                {
                    "internalType": "bytes",
                    "name": "_signature",
                    "type": "bytes"
                }
            ],
            "name": "isValidSignature",
            "outputs": [
                {
                    "internalType": "bytes4",
                    "name": "magicValue",
                    "type": "bytes4"
                }
            ],
            "stateMutability": "view",
            "type": "function"
        },
        {
            "inputs": [
                {
                    "internalType": "bytes4",
                    "name": "interfaceId",
                    "type": "bytes4"
                }
            ],
            "name": "supportsInterface",
            "outputs": [
                {
                    "internalType": "bool",
                    "name": "",
                    "type": "bool"
                }
            ],
            "stateMutability": "view",
            "type": "function"
        }
    ],
    "bytecode": "0x60806040523480156200001157600080fd5b5060405162001fb638038062001fb68339810160408190526200003491620000ec565b600180546001600160a01b0319166001600160a01b03831617905562000061636f4df48b60e01b62000068565b506200011e565b6001600160e01b03198082161415620000c75760405162461bcd60e51b815260206004820152601c60248201527f4552433136353a20696e76616c696420696e7465726661636520696400000000604482015260640160405180910390fd5b6001600160e01b0319166000908152602081905260409020805460ff19166001179055565b600060208284031215620000ff57600080fd5b81516001600160a01b03811681146200011757600080fd5b9392505050565b611e88806200012e6000396000f3fe6080604052600436106100655760003560e01c80635dab2420116100435780635dab2420146100f85780638953580314610130578063efdb46361461019b57600080fd5b806301ffc9a71461006a57806309c5eabe1461009f5780631626ba7e146100bf575b600080fd5b34801561007657600080fd5b5061008a610085366004611a0b565b6101ae565b60405190151581526020015b60405180910390f35b6100b26100ad366004611a28565b6101d9565b6040516100969190611bec565b3480156100cb57600080fd5b506100df6100da3660046119c4565b610308565b6040516001600160e01b03199091168152602001610096565b34801561010457600080fd5b50600154610118906001600160a01b031681565b6040516001600160a01b039091168152602001610096565b34801561013c57600080fd5b5061018d61014b366004611724565b6001600160a01b039190911660009081526002602090815260408083208484529091529020546fffffffffffffffffffffffffffffffff1660809190911b1790565b604051908152602001610096565b6100b26101a9366004611750565b61035a565b60006001600160e01b03198216630b135d3f60e11b14806101d357506101d3826105f4565b92915050565b60606101e6338484610649565b60015460009081906001600160a01b0316345a90878760405161020a929190611b47565b600060405180830381858888f193505050503d8060008114610248576040519150601f19603f3d011682016040523d82523d6000602084013e61024d565b606091505b5091509150816102a25760448151101561026657600080fd5b600481019050808060200190518101906102809190611a9f565b60405162461bcd60e51b81526004016102999190611bec565b60405180910390fd5b347f2e733a17851169f232b3859260eb3ad2a086afd54e999eb4ea9afb7791702e4186866040516102d4929190611bbd565b60405180910390a260008151116102eb57806102ff565b808060200190518101906102ff9190611a6a565b95945050505050565b6000806103158484610850565b60015490915061020090610332906001600160a01b031683610874565b6102001614610349576001600160e01b0319610352565b630b135d3f60e11b5b949350505050565b60606001600160a01b03861630146103da5760405162461bcd60e51b815260206004820152603860248201527f6578656375746552656c617943616c6c3a204d657373616765206e6f7420736960448201527f676e656420666f722074686973206b65794d616e6167657200000000000000006064820152608401610299565b6000308686866040516020016103f39493929190611b14565b6040516020818303038152906040529050600061046e8461046884805190602001206040517f19457468657265756d205369676e6564204d6573736167653a0a3332000000006020820152603c8101829052600090605c01604051602081830303815290604052805190602001209050919050565b90610850565b905061047a8188610971565b6104c65760405162461bcd60e51b815260206004820152601f60248201527f6578656375746552656c617943616c6c3a20496e76616c6964206e6f6e6365006044820152606401610299565b6001600160a01b038116600090815260026020908152604080832060808b901c845290915281208054916104f983611d92565b9190505550610509818787610649565b60015460009081906001600160a01b0316815a908a8a60405161052d929190611b47565b600060405180830381858888f193505050503d806000811461056b576040519150601f19603f3d011682016040523d82523d6000602084013e610570565b606091505b5091509150816105895760448151101561026657600080fd5b347f2e733a17851169f232b3859260eb3ad2a086afd54e999eb4ea9afb7791702e4189896040516105bb929190611bbd565b60405180910390a260008151116105d257806105e6565b808060200190518101906105e69190611a6a565b9a9950505050505050505050565b60007f01ffc9a7000000000000000000000000000000000000000000000000000000006001600160e01b0319831614806101d35750506001600160e01b03191660009081526020819052604090205460ff1690565b60006106586004828486611c7c565b61066191611d11565b90506001600160e01b031981167f14a6e2930000000000000000000000000000000000000000000000000000000014156106a5576106a08484846109bc565b61084a565b6001600160e01b031981167f44c028fe00000000000000000000000000000000000000000000000000000000141561073f576106e2848484610bc8565b60006106f2604460308587611c7c565b6106fb91611cbe565b60601c905061070a8582610d24565b60a8831061073957600061072260a860a48688611c7c565b61072b91611d11565b90506107378682610e04565b505b5061084a565b6001600160e01b031981167ff2fde38b0000000000000000000000000000000000000000000000000000000014156107dc5760015460009061078a906001600160a01b031686610874565b9050610797600182610f18565b806107375750610737856040518060400160405280601181526020017f5452414e534645524f574e455253484950000000000000000000000000000000815250610f34565b60405162461bcd60e51b815260206004820152602b60248201527f5f7665726966795065726d697373696f6e733a20756e6b6e6f776e204552433760448201527f32352073656c6563746f720000000000000000000000000000000000000000006064820152608401610299565b50505050565b600080600061085f8585610f6c565b9150915061086c81610fdc565b509392505050565b604080517f4b80742d0000000082ac000000000000000000000000000000000000000000006020808301919091526bffffffffffffffffffffffff19606085901b16602c830152825180830382018152918301909252015160009081906108e5906001600160a01b0386169061119a565b905060006108f282611d3f565b1415610968576040805162461bcd60e51b81526020600482015260248101919091527f4c5350365574696c733a6765745065726d697373696f6e73466f723a206e6f2060448201527f7065726d697373696f6e732073657420666f72207468697320616464726573736064820152608401610299565b61035281611d3f565b6001600160a01b0382166000908152600260209081526040808320608085901c84529091528120546109b470010000000000000000000000000000000084611dad565b149392505050565b6001546000906109d5906001600160a01b031685610874565b905060006109e7606460448587611c7c565b6109f091611cf3565b9050606460005b82811015610bbf576000868387610a0f826020611ca6565b92610a1c93929190611c7c565b610a2591611cf3565b90507fffffffffffffffff00000000000000000000000000000000000000000000000081167f4b80742d000000000000000000000000000000000000000000000000000000001415610b4c576001546000908190610a8c906001600160a01b03168461119a565b610a9590611d3f565b1490508015610af457610aa9600487610f18565b80610aee5750610aee896040518060400160405280600e81526020017f4144445045524d495353494f4e53000000000000000000000000000000000000815250610f34565b50610b46565b610aff600287610f18565b80610b445750610b44896040518060400160405280601181526020017f4348414e47455045524d495353494f4e53000000000000000000000000000000815250610f34565b505b50610b9e565b610b57600886610f18565b80610b9c5750610b9c886040518060400160405280600781526020017f5345544441544100000000000000000000000000000000000000000000000000815250610f34565b505b610ba9602084611ca6565b9250508080610bb790611d92565b9150506109f7565b50505050505050565b600154600090610be1906001600160a01b031685610874565b90506000610bf3602460048587611c7c565b610bfc91611cf3565b90506000610c0e606460448688611c7c565b610c1791611cf3565b90506004821415610c905760405162461bcd60e51b815260206004820152603b60248201527f5f76657269667943616e457865637574653a206f7065726174696f6e2034206060448201527f44454c454741544543414c4c60206e6f7420737570706f7274656400000000006064820152608401610299565b600080610c9c846112a2565b91509150610caa8286610f18565b80610cba5750610cba8882610f34565b50600083118015610cd45750610cd261010086610f18565b155b15610d1a57610d18886040518060400160405280600d81526020017f5452414e5346455256414c554500000000000000000000000000000000000000815250610f34565b505b5050505050505050565b600154600090610d3d906001600160a01b031684611439565b9050805160001415610d4e57505050565b600081806020019051810190610d6491906117d6565b905060005b8151811015610dbe57818181518110610d8457610d84611dfb565b60200260200101516001600160a01b0316846001600160a01b03161415610dac575050505050565b80610db681611d92565b915050610d69565b506040517f2879b1280000000000000000000000000000000000000000000000000000000081526001600160a01b03808616600483015284166024820152604401610299565b600154600090610e1d906001600160a01b0316846114a6565b9050805160001415610e2e57505050565b600081806020019051810190610e449190611877565b905060005b8151811015610eca57818181518110610e6457610e64611dfb565b60200260200101517bffffffffffffffffffffffffffffffffffffffffffffffffffffffff1916847bffffffffffffffffffffffffffffffffffffffffffffffffffffffff19161415610eb8575050505050565b80610ec281611d92565b915050610e49565b506040517f841351100000000000000000000000000000000000000000000000000000000081526001600160a01b03851660048201526001600160e01b031984166024820152604401610299565b60008282841614610f2a576000610f2d565b60015b9392505050565b600082826040517f3bdad6e6000000000000000000000000000000000000000000000000000000008152600401610299929190611b57565b600080825160411415610fa35760208301516040840151606085015160001a610f9787828585611507565b94509450505050610fd5565b825160401415610fcd5760208301516040840151610fc28683836115f4565b935093505050610fd5565b506000905060025b9250929050565b6000816004811115610ff057610ff0611de5565b1415610ff95750565b600181600481111561100d5761100d611de5565b141561105b5760405162461bcd60e51b815260206004820152601860248201527f45434453413a20696e76616c6964207369676e617475726500000000000000006044820152606401610299565b600281600481111561106f5761106f611de5565b14156110bd5760405162461bcd60e51b815260206004820152601f60248201527f45434453413a20696e76616c6964207369676e6174757265206c656e677468006044820152606401610299565b60038160048111156110d1576110d1611de5565b141561112a5760405162461bcd60e51b815260206004820152602260248201527f45434453413a20696e76616c6964207369676e6174757265202773272076616c604482015261756560f01b6064820152608401610299565b600481600481111561113e5761113e611de5565b14156111975760405162461bcd60e51b815260206004820152602260248201527f45434453413a20696e76616c6964207369676e6174757265202776272076616c604482015261756560f01b6064820152608401610299565b50565b604080516001808252818301909252606091600091906020808301908036833701905050905082816000815181106111d4576111d4611dfb565b60209081029190910101526040517f4e3e6e9c0000000000000000000000000000000000000000000000000000000081526000906001600160a01b03861690634e3e6e9c90611227908590600401611b79565b60006040518083038186803b15801561123f57600080fd5b505afa158015611253573d6000803e3d6000fd5b505050506040513d6000823e601f3d908101601f1916820160405261127b919081019061190c565b60008151811061128d5761128d611dfb565b60200260200101519050809250505092915050565b600060606005831061131c5760405162461bcd60e51b815260206004820152603760248201527f5f657874726163745065726d697373696f6e46726f6d4f7065726174696f6e3a60448201527f20696e76616c6964206f7065726174696f6e20747970650000000000000000006064820152608401610299565b8261135f57505060408051808201909152600481527f43414c4c000000000000000000000000000000000000000000000000000000006020820152601092909150565b82600114156113a657505060408051808201909152600681527f43524541544500000000000000000000000000000000000000000000000000006020820152608092909150565b82600214156113ed57505060408051808201909152600781527f43524541544532000000000000000000000000000000000000000000000000006020820152608092909150565b826003141561143457505060408051808201909152600a81527f53544154494343414c4c000000000000000000000000000000000000000000006020820152608092909150565b915091565b604080517f4b80742d00000000c6dd00000000000000000000000000000000000000000000602080830191909152606084811b6bffffffffffffffffffffffff1916602c8401528351808403830181529284019093520151610f2d905b6001600160a01b0385169061119a565b604080517f4b80742d000000008efe00000000000000000000000000000000000000000000602080830191909152606084811b6bffffffffffffffffffffffff1916602c8401528351808403830181529284019093520151610f2d90611496565b6000807f7fffffffffffffffffffffffffffffff5d576e7357a4501ddfe92f46681b20a083111561153e57506000905060036115eb565b8460ff16601b1415801561155657508460ff16601c14155b1561156757506000905060046115eb565b6040805160008082526020820180845289905260ff881692820192909252606081018690526080810185905260019060a0016020604051602081039080840390855afa1580156115bb573d6000803e3d6000fd5b5050604051601f1901519150506001600160a01b0381166115e4576000600192509250506115eb565b9150600090505b94509492505050565b6000807f7fffffffffffffffffffffffffffffffffffffffffffffffffffffffffffffff831660ff84901c601b0161162e87828885611507565b935093505050935093915050565b600061164f61164a84611c54565b611bff565b905082815283838301111561166357600080fd5b610f2d836020830184611d66565b60008083601f84011261168357600080fd5b50813567ffffffffffffffff81111561169b57600080fd5b602083019150836020828501011115610fd557600080fd5b600082601f8301126116c457600080fd5b81356116d261164a82611c54565b8181528460208386010111156116e757600080fd5b816020850160208301376000918101602001919091529392505050565b600082601f83011261171557600080fd5b610f2d8383516020850161163c565b6000806040838503121561173757600080fd5b823561174281611e27565b946020939093013593505050565b60008060008060006080868803121561176857600080fd5b853561177381611e27565b945060208601359350604086013567ffffffffffffffff8082111561179757600080fd5b6117a389838a01611671565b909550935060608801359150808211156117bc57600080fd5b506117c9888289016116b3565b9150509295509295909350565b600060208083850312156117e957600080fd5b825167ffffffffffffffff81111561180057600080fd5b8301601f8101851361181157600080fd5b805161181f61164a82611c30565b80828252848201915084840188868560051b870101111561183f57600080fd5b600094505b8385101561186b57805161185781611e27565b835260019490940193918501918501611844565b50979650505050505050565b6000602080838503121561188a57600080fd5b825167ffffffffffffffff8111156118a157600080fd5b8301601f810185136118b257600080fd5b80516118c061164a82611c30565b80828252848201915084840188868560051b87010111156118e057600080fd5b600094505b8385101561186b5780516118f881611e3c565b8352600194909401939185019185016118e5565b6000602080838503121561191f57600080fd5b825167ffffffffffffffff8082111561193757600080fd5b818501915085601f83011261194b57600080fd5b815161195961164a82611c30565b80828252858201915085850189878560051b880101111561197957600080fd5b6000805b858110156119b457825187811115611993578283fd5b6119a18d8b838c0101611704565b865250938801939188019160010161197d565b50919a9950505050505050505050565b600080604083850312156119d757600080fd5b82359150602083013567ffffffffffffffff8111156119f557600080fd5b611a01858286016116b3565b9150509250929050565b600060208284031215611a1d57600080fd5b8135610f2d81611e3c565b60008060208385031215611a3b57600080fd5b823567ffffffffffffffff811115611a5257600080fd5b611a5e85828601611671565b90969095509350505050565b600060208284031215611a7c57600080fd5b815167ffffffffffffffff811115611a9357600080fd5b61035284828501611704565b600060208284031215611ab157600080fd5b815167ffffffffffffffff811115611ac857600080fd5b8201601f81018413611ad957600080fd5b6103528482516020840161163c565b60008151808452611b00816020860160208601611d66565b601f01601f19169290920160200192915050565b6bffffffffffffffffffffffff198560601b16815283601482015281836034830137600091016034019081529392505050565b8183823760009101908152919050565b6001600160a01b03831681526040602082015260006103526040830184611ae8565b6020808252825182820181905260009190848201906040850190845b81811015611bb157835183529284019291840191600101611b95565b50909695505050505050565b60208152816020820152818360408301376000818301604090810191909152601f909201601f19160101919050565b602081526000610f2d6020830184611ae8565b604051601f8201601f1916810167ffffffffffffffff81118282101715611c2857611c28611e11565b604052919050565b600067ffffffffffffffff821115611c4a57611c4a611e11565b5060051b60200190565b600067ffffffffffffffff821115611c6e57611c6e611e11565b50601f01601f191660200190565b60008085851115611c8c57600080fd5b83861115611c9957600080fd5b5050820193919092039150565b60008219821115611cb957611cb9611dcf565b500190565b6bffffffffffffffffffffffff198135818116916014851015611ceb5780818660140360031b1b83161692505b505092915050565b803560208310156101d357600019602084900360031b1b1692915050565b6001600160e01b03198135818116916004851015611ceb5760049490940360031b84901b1690921692915050565b80516020808301519190811015611d60576000198160200360031b1b821691505b50919050565b60005b83811015611d81578181015183820152602001611d69565b8381111561084a5750506000910152565b6000600019821415611da657611da6611dcf565b5060010190565b600082611dca57634e487b7160e01b600052601260045260246000fd5b500690565b634e487b7160e01b600052601160045260246000fd5b634e487b7160e01b600052602160045260246000fd5b634e487b7160e01b600052603260045260246000fd5b634e487b7160e01b600052604160045260246000fd5b6001600160a01b038116811461119757600080fd5b6001600160e01b03198116811461119757600080fdfea2646970667358221220e6742e43fb265b342587923b881753b8f67f927302d79adc2f6ee036bd8cf07064736f6c63430008070033",
    "linkReferences": {},
    "deployedLinkReferences": {}
}