{
    "_format": "hh-sol-artifact-1",
    "contractName": "UniversalProfile",
    "sourceName": "contracts/UniversalProfile.sol",
    "abi": [
        {
            "inputs": [
                {
                    "internalType": "address",
                    "name": "_newOwner",
                    "type": "address"
                }
            ],
            "stateMutability": "nonpayable",
            "type": "constructor"
        },
        {
            "anonymous": false,
            "inputs": [
                {
                    "indexed": true,
                    "internalType": "uint256",
                    "name": "_operation",
                    "type": "uint256"
                },
                {
                    "indexed": true,
                    "internalType": "address",
                    "name": "_contractAddress",
                    "type": "address"
                },
                {
                    "indexed": true,
                    "internalType": "uint256",
                    "name": "_value",
                    "type": "uint256"
                }
            ],
            "name": "ContractCreated",
            "type": "event"
        },
        {
            "anonymous": false,
            "inputs": [
                {
                    "indexed": true,
                    "internalType": "bytes32",
                    "name": "key",
                    "type": "bytes32"
                },
                {
                    "indexed": false,
                    "internalType": "bytes",
                    "name": "value",
                    "type": "bytes"
                }
            ],
            "name": "DataChanged",
            "type": "event"
        },
        {
            "anonymous": false,
            "inputs": [
                {
                    "indexed": true,
                    "internalType": "uint256",
                    "name": "_operation",
                    "type": "uint256"
                },
                {
                    "indexed": true,
                    "internalType": "address",
                    "name": "_to",
                    "type": "address"
                },
                {
                    "indexed": true,
                    "internalType": "uint256",
                    "name": "_value",
                    "type": "uint256"
                },
                {
                    "indexed": false,
                    "internalType": "bytes",
                    "name": "_data",
                    "type": "bytes"
                }
            ],
            "name": "Executed",
            "type": "event"
        },
        {
            "anonymous": false,
            "inputs": [
                {
                    "indexed": true,
                    "internalType": "address",
                    "name": "previousOwner",
                    "type": "address"
                },
                {
                    "indexed": true,
                    "internalType": "address",
                    "name": "newOwner",
                    "type": "address"
                }
            ],
            "name": "OwnershipTransferred",
            "type": "event"
        },
        {
            "anonymous": false,
            "inputs": [
                {
                    "indexed": true,
                    "internalType": "address",
                    "name": "from",
                    "type": "address"
                },
                {
                    "indexed": true,
                    "internalType": "bytes32",
                    "name": "typeId",
                    "type": "bytes32"
                },
                {
                    "indexed": true,
                    "internalType": "bytes",
                    "name": "returnedValue",
                    "type": "bytes"
                },
                {
                    "indexed": false,
                    "internalType": "bytes",
                    "name": "receivedData",
                    "type": "bytes"
                }
            ],
            "name": "UniversalReceiver",
            "type": "event"
        },
        {
            "anonymous": false,
            "inputs": [
                {
                    "indexed": true,
                    "internalType": "address",
                    "name": "sender",
                    "type": "address"
                },
                {
                    "indexed": true,
                    "internalType": "uint256",
                    "name": "value",
                    "type": "uint256"
                }
            ],
            "name": "ValueReceived",
            "type": "event"
        },
        {
            "inputs": [],
            "name": "allDataKeys",
            "outputs": [
                {
                    "internalType": "bytes32[]",
                    "name": "",
                    "type": "bytes32[]"
                }
            ],
            "stateMutability": "view",
            "type": "function"
        },
        {
            "inputs": [
                {
                    "internalType": "uint256",
                    "name": "",
                    "type": "uint256"
                }
            ],
            "name": "dataKeys",
            "outputs": [
                {
                    "internalType": "bytes32",
                    "name": "",
                    "type": "bytes32"
                }
            ],
            "stateMutability": "view",
            "type": "function"
        },
        {
            "inputs": [
                {
                    "internalType": "uint256",
                    "name": "_operation",
                    "type": "uint256"
                },
                {
                    "internalType": "address",
                    "name": "_to",
                    "type": "address"
                },
                {
                    "internalType": "uint256",
                    "name": "_value",
                    "type": "uint256"
                },
                {
                    "internalType": "bytes",
                    "name": "_data",
                    "type": "bytes"
                }
            ],
            "name": "execute",
            "outputs": [
                {
                    "internalType": "bytes",
                    "name": "result",
                    "type": "bytes"
                }
            ],
            "stateMutability": "payable",
            "type": "function"
        },
        {
            "inputs": [
                {
                    "internalType": "bytes32[]",
                    "name": "_keys",
                    "type": "bytes32[]"
                }
            ],
            "name": "getData",
            "outputs": [
                {
                    "internalType": "bytes[]",
                    "name": "values",
                    "type": "bytes[]"
                }
            ],
            "stateMutability": "view",
            "type": "function"
        },
        {
            "inputs": [
                {
                    "internalType": "bytes32",
                    "name": "_hash",
                    "type": "bytes32"
                },
                {
                    "internalType": "bytes",
                    "name": "_signature",
                    "type": "bytes"
                }
            ],
            "name": "isValidSignature",
            "outputs": [
                {
                    "internalType": "bytes4",
                    "name": "magicValue",
                    "type": "bytes4"
                }
            ],
            "stateMutability": "view",
            "type": "function"
        },
        {
            "inputs": [],
            "name": "owner",
            "outputs": [
                {
                    "internalType": "address",
                    "name": "",
                    "type": "address"
                }
            ],
            "stateMutability": "view",
            "type": "function"
        },
        {
            "inputs": [],
            "name": "renounceOwnership",
            "outputs": [],
            "stateMutability": "nonpayable",
            "type": "function"
        },
        {
            "inputs": [
                {
                    "internalType": "bytes32[]",
                    "name": "_keys",
                    "type": "bytes32[]"
                },
                {
                    "internalType": "bytes[]",
                    "name": "_values",
                    "type": "bytes[]"
                }
            ],
            "name": "setData",
            "outputs": [],
            "stateMutability": "nonpayable",
            "type": "function"
        },
        {
            "inputs": [
                {
                    "internalType": "bytes4",
                    "name": "interfaceId",
                    "type": "bytes4"
                }
            ],
            "name": "supportsInterface",
            "outputs": [
                {
                    "internalType": "bool",
                    "name": "",
                    "type": "bool"
                }
            ],
            "stateMutability": "view",
            "type": "function"
        },
        {
            "inputs": [
                {
                    "internalType": "address",
                    "name": "newOwner",
                    "type": "address"
                }
            ],
            "name": "transferOwnership",
            "outputs": [],
            "stateMutability": "nonpayable",
            "type": "function"
        },
        {
            "inputs": [
                {
                    "internalType": "bytes32",
                    "name": "_typeId",
                    "type": "bytes32"
                },
                {
                    "internalType": "bytes",
                    "name": "_data",
                    "type": "bytes"
                }
            ],
            "name": "universalReceiver",
            "outputs": [
                {
                    "internalType": "bytes",
                    "name": "returnValue",
                    "type": "bytes"
                }
            ],
            "stateMutability": "nonpayable",
            "type": "function"
        },
        {
            "stateMutability": "payable",
            "type": "receive"
        }
    ],
    "bytecode": "0x60806040523480156200001157600080fd5b50604051620028b6380380620028b68339810160408190526200003491620003f6565b808080806200004b6000546001600160a01b031690565b6001600160a01b0316816001600160a01b0316146200007a576200007a816200018960201b62000d6f1760201c565b6200008c632260147f60e11b6200021c565b506000546001600160a01b03828116911614620000b957620000b9816200018960201b62000d6f1760201c565b620000cb635a988c0f60e01b6200021c565b50620000e090506363cb749b60e01b6200021c565b620000f2630b135d3f60e11b6200021c565b62000104631aed5a8560e21b6200021c565b5060408051808201909152600481526355f212eb60e11b60208201527feafec4d89fa9619884b6b89135626455000000000000000000000000abe425d6906200014e8282620002a0565b50600380546001810182556000919091527fc2575a0e9e593c00f959f8c92f12db2869c3395a3b0502d05e2516446f71f85b015550620004bd565b600054600160a01b900460ff1615620001fb5760405162461bcd60e51b815260206004820152602960248201527f4f776e61626c653a206f776e65722063616e206f6e6c7920626520696e69746960448201526861746564206f6e636560b81b60648201526084015b60405180910390fd5b6000805460ff60a01b1916600160a01b179055620002198162000300565b50565b6001600160e01b03198082161415620002785760405162461bcd60e51b815260206004820152601c60248201527f4552433136353a20696e76616c696420696e74657266616365206964000000006044820152606401620001f2565b6001600160e01b0319166000908152600160208190526040909120805460ff19169091179055565b60008281526002602090815260409091208251620002c19284019062000350565b50817fece574603820d07bc9b91f2a932baadf4628aabcb8afba49776529c14a6104b282604051620002f4919062000428565b60405180910390a25050565b600080546001600160a01b038381166001600160a01b0319831681178455604051919092169283917f8be0079c531659141344cd1fd0a4f28419497f9722a3daafe3b4186f6b6457e09190a35050565b8280546200035e9062000480565b90600052602060002090601f016020900481019282620003825760008555620003cd565b82601f106200039d57805160ff1916838001178555620003cd565b82800160010185558215620003cd579182015b82811115620003cd578251825591602001919060010190620003b0565b50620003db929150620003df565b5090565b5b80821115620003db5760008155600101620003e0565b6000602082840312156200040957600080fd5b81516001600160a01b03811681146200042157600080fd5b9392505050565b600060208083528351808285015260005b81811015620004575785810183015185820160400152820162000439565b818111156200046a576000604083870101525b50601f01601f1916929092016040019392505050565b600181811c908216806200049557607f821691505b60208210811415620004b757634e487b7160e01b600052602260045260246000fd5b50919050565b6123e980620004cd6000396000f3fe6080604052600436106100c05760003560e01c80636bb56a1411610074578063c559acef1161004e578063c559acef14610233578063ec89dc1c14610255578063f2fde38b1461028357600080fd5b80636bb56a14146101d6578063715018a6146101f65780638da5cb5b1461020b57600080fd5b80631626ba7e116100a55780631626ba7e1461015057806344c028fe146101895780634e3e6e9c146101a957600080fd5b806301ffc9a7146100f957806314a6e2931461012e57600080fd5b366100f457604051349033907f7e71433ddf847725166244795048ecf3e3f9f35628254ecbf73605666423349390600090a3005b600080fd5b34801561010557600080fd5b50610119610114366004611f60565b6102a3565b60405190151581526020015b60405180910390f35b34801561013a57600080fd5b5061014e610149366004611d18565b6102e3565b005b34801561015c57600080fd5b5061017061016b366004611f19565b610350565b6040516001600160e01b03199091168152602001610125565b61019c610197366004612031565b61046d565b6040516101259190612206565b3480156101b557600080fd5b506101c96101c4366004611ce3565b610923565b6040516101259190612177565b3480156101e257600080fd5b5061019c6101f1366004611ecd565b6109d9565b34801561020257600080fd5b5061014e610bae565b34801561021757600080fd5b506000546040516001600160a01b039091168152602001610125565b34801561023f57600080fd5b50610248610c14565b6040516101259190612133565b34801561026157600080fd5b50610275610270366004612018565b610c6c565b604051908152602001610125565b34801561028f57600080fd5b5061014e61029e366004611cc8565b610c8d565b60006301ffc9a760e01b6001600160e01b0319831614806102dd57506001600160e01b0319821660009081526001602052604090205460ff165b92915050565b6000546001600160a01b031633146103425760405162461bcd60e51b815260206004820181905260248201527f4f776e61626c653a2063616c6c6572206973206e6f7420746865206f776e657260448201526064015b60405180910390fd5b61034c8282610e26565b5050565b600061036d6103676000546001600160a01b031690565b3b151590565b1561041d57610382630b135d3f60e11b6102a3565b610394576001600160e01b0319610416565b600054604051630b135d3f60e11b81526001600160a01b0390911690631626ba7e906103c690869086906004016121d9565b60206040518083038186803b1580156103de57600080fd5b505afa1580156103f2573d6000803e3d6000fd5b505050506040513d601f19601f820116820180604052508101906104169190611f7d565b90506102dd565b6104278383610fc9565b6001600160a01b03166104426000546001600160a01b031690565b6001600160a01b03161461045e576001600160e01b0319610416565b50630b135d3f60e11b92915050565b6000546060906001600160a01b031633146104ca5760405162461bcd60e51b815260206004820181905260248201527f4f776e61626c653a2063616c6c6572206973206e6f7420746865206f776e65726044820152606401610339565b60005a90508661056357610517868686868080601f016020809104026020016040519081016040528093929190818152602001838380828437600092019190915250879250610fed915050565b915084866001600160a01b0316887f1f920dbda597d7bf95035464170fa58d0a4b57f13a1c315ace6793b9f63688b887876040516105569291906121f2565b60405180910390a4610919565b60038714156105ae576105178685858080601f0160208091040260200160405190810160405280939291908181526020018383808284376000920191909152508692506110a5915050565b60048714156106ed57600080546001600160a01b031690506106088786868080601f016020809104026020016040519081016040528093929190818152602001838380828437600092019190915250879250611126915050565b925085876001600160a01b0316897f1f920dbda597d7bf95035464170fa58d0a4b57f13a1c315ace6793b9f63688b888886040516106479291906121f2565b60405180910390a4806001600160a01b031661066b6000546001600160a01b031690565b6001600160a01b0316146106e75760405162461bcd60e51b815260206004820152603160248201527f44656c65676174652063616c6c206973206e6f7420616c6c6f77656420746f2060448201527f6d6f6469667920746865206f776e6572210000000000000000000000000000006064820152608401610339565b50610919565b60018714156107a95760006107388686868080601f01602080910402602001604051908101604052809392919081815260200183838082843760009201919091525061118092505050565b6040516bffffffffffffffffffffffff19606083901b166020820152909150603401604051602081830303815290604052925085816001600160a01b0316897f01c42bd7e97a66166063b02fce6924e6656b6c2c61966630165095c4fb0b7b2f60405160405180910390a450610919565b60028714156108d157600061080085858080601f0160208091040260200160405190810160405280939291908181526020018383808284376000920191909152506107fb9250602091508890506122ae565b6111e2565b9050600061084f86868080601f0160208091040260200160405190810160405280939291908181526020018383808284376000920182905250925061084a915060209050896122ae565b611248565b9050600061085e888484611370565b6040516bffffffffffffffffffffffff19606083901b166020820152909150603401604051602081830303815290604052945087816001600160a01b03168b7f01c42bd7e97a66166063b02fce6924e6656b6c2c61966630165095c4fb0b7b2f60405160405180910390a4505050610919565b60405162461bcd60e51b815260206004820152601460248201527f57726f6e67206f7065726174696f6e20747970650000000000000000000000006044820152606401610339565b5095945050505050565b6060815167ffffffffffffffff81111561093f5761093f612387565b60405190808252806020026020018201604052801561097257816020015b606081526020019060019003908161095d5790505b50905060005b82518110156109d3576109a383828151811061099657610996612371565b602002602001015161147a565b8282815181106109b5576109b5612371565b602002602001018190525080806109cb9061232a565b915050610978565b50919050565b60606000610a07307f0cfc51aec37c55a4d0b1a65c6255c4bf2fbdf6277f3cc0730c45b828b6db8b4761151c565b9050604051806020016040528060008152509150805160141415610b45576000610a32826000611624565b6040516301ffc9a760e01b815263c2d7bcc160e01b60048201529091506001600160a01b038216906301ffc9a79060240160206040518083038186803b158015610a7b57600080fd5b505afa158015610a8f573d6000803e3d6000fd5b505050506040513d601f19601f82011682018060405250810190610ab39190611eab565b15610b435760405163c2d7bcc160e01b81526001600160a01b0382169063c2d7bcc190610aea9033908a908a908a9060040161210a565b600060405180830381600087803b158015610b0457600080fd5b505af1158015610b18573d6000803e3d6000fd5b505050506040513d6000823e601f3d908101601f19168201604052610b409190810190611f9a565b92505b505b81604051610b5391906120ee565b604051809103902085610b633390565b6001600160a01b03167f8187df79ab47ad16102e7bc8760349a115b3ba9869b8cedd78996f930ac9cac38787604051610b9d9291906121f2565b60405180910390a4505b9392505050565b6000546001600160a01b03163314610c085760405162461bcd60e51b815260206004820181905260248201527f4f776e61626c653a2063616c6c6572206973206e6f7420746865206f776e65726044820152606401610339565b610c12600061169a565b565b60606003805480602002602001604051908101604052809291908181526020018280548015610c6257602002820191906000526020600020905b815481526020019060010190808311610c4e575b5050505050905090565b60038181548110610c7c57600080fd5b600091825260209091200154905081565b6000546001600160a01b03163314610ce75760405162461bcd60e51b815260206004820181905260248201527f4f776e61626c653a2063616c6c6572206973206e6f7420746865206f776e65726044820152606401610339565b6001600160a01b038116610d635760405162461bcd60e51b815260206004820152602660248201527f4f776e61626c653a206e6577206f776e657220697320746865207a65726f206160448201527f64647265737300000000000000000000000000000000000000000000000000006064820152608401610339565b610d6c8161169a565b50565b600054600160a01b900460ff1615610def5760405162461bcd60e51b815260206004820152602960248201527f4f776e61626c653a206f776e65722063616e206f6e6c7920626520696e69746960448201527f61746564206f6e636500000000000000000000000000000000000000000000006064820152608401610339565b600080547fffffffffffffffffffffff00ffffffffffffffffffffffffffffffffffffffff16600160a01b179055610d6c8161169a565b6000546001600160a01b03163314610e805760405162461bcd60e51b815260206004820181905260248201527f4f776e61626c653a2063616c6c6572206973206e6f7420746865206f776e65726044820152606401610339565b8051825114610ef75760405162461bcd60e51b815260206004820152602660248201527f4b657973206c656e677468206e6f7420657175616c20746f2076616c7565732060448201527f6c656e67746800000000000000000000000000000000000000000000000000006064820152608401610339565b60005b8251811015610fc45760026000848381518110610f1957610f19612371565b602002602001015181526020019081526020016000208054610f3a906122f5565b15159050610f76576003838281518110610f5657610f56612371565b602090810291909101810151825460018101845560009384529190922001555b610fb2838281518110610f8b57610f8b612371565b6020026020010151838381518110610fa557610fa5612371565b6020026020010151611702565b80610fbc8161232a565b915050610efa565b505050565b6000806000610fd8858561175e565b91509150610fe5816117ce565b509392505050565b6060600080866001600160a01b031684878760405161100c91906120ee565b600060405180830381858888f193505050503d806000811461104a576040519150601f19603f3d011682016040523d82523d6000602084013e61104f565b606091505b50915091508161109b5760448151101561106857600080fd5b600481019050808060200190518101906110829190611fcf565b60405162461bcd60e51b81526004016103399190612206565b9695505050505050565b6060600080856001600160a01b031684866040516110c391906120ee565b6000604051808303818686fa925050503d80600081146110ff576040519150601f19603f3d011682016040523d82523d6000602084013e611104565b606091505b50915091508161111d5760448151101561106857600080fd5b95945050505050565b6060600080856001600160a01b0316848660405161114491906120ee565b6000604051808303818686f4925050503d80600081146110ff576040519150601f19603f3d011682016040523d82523d6000602084013e611104565b600081516020830184f090506001600160a01b0381166102dd5760405162461bcd60e51b815260206004820152601960248201527f436f756c64206e6f74206465706c6f7920636f6e7472616374000000000000006044820152606401610339565b60006111ef826020612296565b8351101561123f5760405162461bcd60e51b815260206004820152601560248201527f746f427974657333325f6f75744f66426f756e647300000000000000000000006044820152606401610339565b50016020015190565b60608161125681601f612296565b10156112a45760405162461bcd60e51b815260206004820152600e60248201527f736c6963655f6f766572666c6f770000000000000000000000000000000000006044820152606401610339565b6112ae8284612296565b845110156112fe5760405162461bcd60e51b815260206004820152601160248201527f736c6963655f6f75744f66426f756e64730000000000000000000000000000006044820152606401610339565b60608215801561131d5760405191506000825260208201604052611367565b6040519150601f8416801560200281840101858101878315602002848b0101015b8183101561135657805183526020928301920161133e565b5050858452601f01601f1916604052505b50949350505050565b600080844710156113c35760405162461bcd60e51b815260206004820152601d60248201527f437265617465323a20696e73756666696369656e742062616c616e63650000006044820152606401610339565b82516114115760405162461bcd60e51b815260206004820181905260248201527f437265617465323a2062797465636f6465206c656e677468206973207a65726f6044820152606401610339565b8383516020850187f590506001600160a01b0381166114725760405162461bcd60e51b815260206004820152601960248201527f437265617465323a204661696c6564206f6e206465706c6f79000000000000006044820152606401610339565b949350505050565b6000818152600260205260409020805460609190611497906122f5565b80601f01602080910402602001604051908101604052809291908181526020018280546114c3906122f5565b80156115105780601f106114e557610100808354040283529160200191611510565b820191906000526020600020905b8154815290600101906020018083116114f357829003601f168201915b50505050509050919050565b6040805160018082528183019092526060916000919060208083019080368337019050509050828160008151811061155657611556612371565b60209081029190910101526040517f4e3e6e9c0000000000000000000000000000000000000000000000000000000081526000906001600160a01b03861690634e3e6e9c906115a9908590600401612133565b60006040518083038186803b1580156115c157600080fd5b505afa1580156115d5573d6000803e3d6000fd5b505050506040513d6000823e601f3d908101601f191682016040526115fd9190810190611df3565b60008151811061160f5761160f612371565b60200260200101519050809250505092915050565b6000611631826014612296565b835110156116815760405162461bcd60e51b815260206004820152601560248201527f746f416464726573735f6f75744f66426f756e647300000000000000000000006044820152606401610339565b5001602001516c01000000000000000000000000900490565b600080546001600160a01b038381167fffffffffffffffffffffffff0000000000000000000000000000000000000000831681178455604051919092169283917f8be0079c531659141344cd1fd0a4f28419497f9722a3daafe3b4186f6b6457e09190a35050565b6000828152600260209081526040909120825161172192840190611abe565b50817fece574603820d07bc9b91f2a932baadf4628aabcb8afba49776529c14a6104b2826040516117529190612206565b60405180910390a25050565b6000808251604114156117955760208301516040840151606085015160001a61178987828585611989565b945094505050506117c7565b8251604014156117bf57602083015160408401516117b4868383611a76565b9350935050506117c7565b506000905060025b9250929050565b60008160048111156117e2576117e261235b565b14156117eb5750565b60018160048111156117ff576117ff61235b565b141561184d5760405162461bcd60e51b815260206004820152601860248201527f45434453413a20696e76616c6964207369676e617475726500000000000000006044820152606401610339565b60028160048111156118615761186161235b565b14156118af5760405162461bcd60e51b815260206004820152601f60248201527f45434453413a20696e76616c6964207369676e6174757265206c656e677468006044820152606401610339565b60038160048111156118c3576118c361235b565b141561191c5760405162461bcd60e51b815260206004820152602260248201527f45434453413a20696e76616c6964207369676e6174757265202773272076616c604482015261756560f01b6064820152608401610339565b60048160048111156119305761193061235b565b1415610d6c5760405162461bcd60e51b815260206004820152602260248201527f45434453413a20696e76616c6964207369676e6174757265202776272076616c604482015261756560f01b6064820152608401610339565b6000807f7fffffffffffffffffffffffffffffff5d576e7357a4501ddfe92f46681b20a08311156119c05750600090506003611a6d565b8460ff16601b141580156119d857508460ff16601c14155b156119e95750600090506004611a6d565b6040805160008082526020820180845289905260ff881692820192909252606081018690526080810185905260019060a0016020604051602081039080840390855afa158015611a3d573d6000803e3d6000fd5b5050604051601f1901519150506001600160a01b038116611a6657600060019250925050611a6d565b9150600090505b94509492505050565b6000807f7fffffffffffffffffffffffffffffffffffffffffffffffffffffffffffffff831660ff84901c601b01611ab087828885611989565b935093505050935093915050565b828054611aca906122f5565b90600052602060002090601f016020900481019282611aec5760008555611b32565b82601f10611b0557805160ff1916838001178555611b32565b82800160010185558215611b32579182015b82811115611b32578251825591602001919060010190611b17565b50611b3e929150611b42565b5090565b5b80821115611b3e5760008155600101611b43565b6000611b6a611b658461226e565b612219565b9050828152838383011115611b7e57600080fd5b610ba78360208301846122c5565b80356001600160a01b0381168114611ba357600080fd5b919050565b600082601f830112611bb957600080fd5b81356020611bc9611b658361224a565b80838252828201915082860187848660051b8901011115611be957600080fd5b60005b85811015611c0857813584529284019290840190600101611bec565b5090979650505050505050565b60008083601f840112611c2757600080fd5b50813567ffffffffffffffff811115611c3f57600080fd5b6020830191508360208285010111156117c757600080fd5b600082601f830112611c6857600080fd5b8135611c76611b658261226e565b818152846020838601011115611c8b57600080fd5b816020850160208301376000918101602001919091529392505050565b600082601f830112611cb957600080fd5b610ba783835160208501611b57565b600060208284031215611cda57600080fd5b610ba782611b8c565b600060208284031215611cf557600080fd5b813567ffffffffffffffff811115611d0c57600080fd5b61147284828501611ba8565b60008060408385031215611d2b57600080fd5b823567ffffffffffffffff80821115611d4357600080fd5b611d4f86838701611ba8565b9350602091508185013581811115611d6657600080fd5b8501601f81018713611d7757600080fd5b8035611d85611b658261224a565b8082825285820191508584018a878560051b8701011115611da557600080fd5b6000805b85811015611de057823588811115611dbf578283fd5b611dcd8e8b838b0101611c57565b8652509388019391880191600101611da9565b5050508096505050505050509250929050565b60006020808385031215611e0657600080fd5b825167ffffffffffffffff80821115611e1e57600080fd5b818501915085601f830112611e3257600080fd5b8151611e40611b658261224a565b80828252858201915085850189878560051b8801011115611e6057600080fd5b6000805b85811015611e9b57825187811115611e7a578283fd5b611e888d8b838c0101611ca8565b8652509388019391880191600101611e64565b50919a9950505050505050505050565b600060208284031215611ebd57600080fd5b81518015158114610ba757600080fd5b600080600060408486031215611ee257600080fd5b83359250602084013567ffffffffffffffff811115611f0057600080fd5b611f0c86828701611c15565b9497909650939450505050565b60008060408385031215611f2c57600080fd5b82359150602083013567ffffffffffffffff811115611f4a57600080fd5b611f5685828601611c57565b9150509250929050565b600060208284031215611f7257600080fd5b8135610ba78161239d565b600060208284031215611f8f57600080fd5b8151610ba78161239d565b600060208284031215611fac57600080fd5b815167ffffffffffffffff811115611fc357600080fd5b61147284828501611ca8565b600060208284031215611fe157600080fd5b815167ffffffffffffffff811115611ff857600080fd5b8201601f8101841361200957600080fd5b61147284825160208401611b57565b60006020828403121561202a57600080fd5b5035919050565b60008060008060006080868803121561204957600080fd5b8535945061205960208701611b8c565b935060408601359250606086013567ffffffffffffffff81111561207c57600080fd5b61208888828901611c15565b969995985093965092949392505050565b81835281816020850137506000828201602090810191909152601f909101601f19169091010190565b600081518084526120da8160208601602086016122c5565b601f01601f19169290920160200192915050565b600082516121008184602087016122c5565b9190910192915050565b6001600160a01b038516815283602082015260606040820152600061109b606083018486612099565b6020808252825182820181905260009190848201906040850190845b8181101561216b5783518352928401929184019160010161214f565b50909695505050505050565b6000602080830181845280855180835260408601915060408160051b870101925083870160005b828110156121cc57603f198886030184526121ba8583516120c2565b9450928501929085019060010161219e565b5092979650505050505050565b82815260406020820152600061147260408301846120c2565b602081526000611472602083018486612099565b602081526000610ba760208301846120c2565b604051601f8201601f1916810167ffffffffffffffff8111828210171561224257612242612387565b604052919050565b600067ffffffffffffffff82111561226457612264612387565b5060051b60200190565b600067ffffffffffffffff82111561228857612288612387565b50601f01601f191660200190565b600082198211156122a9576122a9612345565b500190565b6000828210156122c0576122c0612345565b500390565b60005b838110156122e05781810151838201526020016122c8565b838111156122ef576000848401525b50505050565b600181811c9082168061230957607f821691505b602082108114156109d357634e487b7160e01b600052602260045260246000fd5b600060001982141561233e5761233e612345565b5060010190565b634e487b7160e01b600052601160045260246000fd5b634e487b7160e01b600052602160045260246000fd5b634e487b7160e01b600052603260045260246000fd5b634e487b7160e01b600052604160045260246000fd5b6001600160e01b031981168114610d6c57600080fdfea264697066735822122050ac2726af658f1be4d6505ab66179ee375ed3be522c5347cad60a90c18b2d2464736f6c63430008070033",
    "linkReferences": {},
    "deployedLinkReferences": {}
}